{
	"project-10/contracts/contract.sol": {
		"BlockchainDiary": {
			"abi": [
				{
					"anonymous": false,
					"inputs": [
						{
							"indexed": true,
							"internalType": "address",
							"name": "user",
							"type": "address"
						},
						{
							"indexed": false,
							"internalType": "uint256",
							"name": "entryId",
							"type": "uint256"
						},
						{
							"indexed": false,
							"internalType": "string",
							"name": "entry",
							"type": "string"
						}
					],
					"name": "DiaryEntryAdded",
					"type": "event"
				},
				{
					"inputs": [
						{
							"internalType": "string",
							"name": "entry",
							"type": "string"
						}
					],
					"name": "addDiaryEntry",
					"outputs": [],
					"stateMutability": "nonpayable",
					"type": "function"
				},
				{
					"inputs": [
						{
							"internalType": "uint256",
							"name": "entryId",
							"type": "uint256"
						}
					],
					"name": "getDiaryEntry",
					"outputs": [
						{
							"internalType": "string",
							"name": "",
							"type": "string"
						}
					],
					"stateMutability": "view",
					"type": "function"
				},
				{
					"inputs": [],
					"name": "getDiaryEntryCount",
					"outputs": [
						{
							"internalType": "uint256",
							"name": "",
							"type": "uint256"
						}
					],
					"stateMutability": "view",
					"type": "function"
				}
			],
			"devdoc": {
				"kind": "dev",
				"methods": {},
				"version": 1
			},
			"evm": {
				"assembly": "    /* \"project-10/contracts/contract.sol\":57:1194  contract BlockchainDiary {... */\n  mstore(0x40, 0x80)\n  callvalue\n  dup1\n  iszero\n  tag_1\n  jumpi\n  0x00\n  dup1\n  revert\ntag_1:\n  pop\n  dataSize(sub_0)\n  dup1\n  dataOffset(sub_0)\n  0x00\n  codecopy\n  0x00\n  return\nstop\n\nsub_0: assembly {\n        /* \"project-10/contracts/contract.sol\":57:1194  contract BlockchainDiary {... */\n      mstore(0x40, 0x80)\n      callvalue\n      dup1\n      iszero\n      tag_1\n      jumpi\n      0x00\n      dup1\n      revert\n    tag_1:\n      pop\n      jumpi(tag_2, lt(calldatasize, 0x04))\n      shr(0xe0, calldataload(0x00))\n      dup1\n      0x2136dcf2\n      eq\n      tag_3\n      jumpi\n      dup1\n      0x7ced9a88\n      eq\n      tag_4\n      jumpi\n      dup1\n      0xe322572b\n      eq\n      tag_5\n      jumpi\n    tag_2:\n      0x00\n      dup1\n      revert\n        /* \"project-10/contracts/contract.sol\":979:1192  function getDiaryEntry(uint256 entryId) public view returns (string memory) {... */\n    tag_3:\n      tag_6\n      0x04\n      dup1\n      calldatasize\n      sub\n      dup2\n      add\n      swap1\n      tag_7\n      swap2\n      swap1\n      tag_8\n      jump\t// in\n    tag_7:\n      tag_9\n      jump\t// in\n    tag_6:\n      mload(0x40)\n      tag_10\n      swap2\n      swap1\n      tag_11\n      jump\t// in\n    tag_10:\n      mload(0x40)\n      dup1\n      swap2\n      sub\n      swap1\n      return\n        /* \"project-10/contracts/contract.sol\":787:902  function getDiaryEntryCount() public view returns (uint256) {... */\n    tag_4:\n      tag_12\n      tag_13\n      jump\t// in\n    tag_12:\n      mload(0x40)\n      tag_14\n      swap2\n      swap1\n      tag_15\n      jump\t// in\n    tag_14:\n      mload(0x40)\n      dup1\n      swap2\n      sub\n      swap1\n      return\n        /* \"project-10/contracts/contract.sol\":391:709  function addDiaryEntry(string memory entry) public {... */\n    tag_5:\n      tag_16\n      0x04\n      dup1\n      calldatasize\n      sub\n      dup2\n      add\n      swap1\n      tag_17\n      swap2\n      swap1\n      tag_18\n      jump\t// in\n    tag_17:\n      tag_19\n      jump\t// in\n    tag_16:\n      stop\n        /* \"project-10/contracts/contract.sol\":979:1192  function getDiaryEntry(uint256 entryId) public view returns (string memory) {... */\n    tag_9:\n        /* \"project-10/contracts/contract.sol\":1040:1053  string memory */\n      0x60\n        /* \"project-10/contracts/contract.sol\":1083:1095  diaryEntries */\n      0x00\n        /* \"project-10/contracts/contract.sol\":1083:1107  diaryEntries[msg.sender] */\n      dup1\n        /* \"project-10/contracts/contract.sol\":1096:1106  msg.sender */\n      caller\n        /* \"project-10/contracts/contract.sol\":1083:1107  diaryEntries[msg.sender] */\n      0xffffffffffffffffffffffffffffffffffffffff\n      and\n      0xffffffffffffffffffffffffffffffffffffffff\n      and\n      dup2\n      mstore\n      0x20\n      add\n      swap1\n      dup2\n      mstore\n      0x20\n      add\n      0x00\n      keccak256\n        /* \"project-10/contracts/contract.sol\":1083:1114  diaryEntries[msg.sender].length */\n      dup1\n      sload\n      swap1\n      pop\n        /* \"project-10/contracts/contract.sol\":1073:1080  entryId */\n      dup3\n        /* \"project-10/contracts/contract.sol\":1073:1114  entryId < diaryEntries[msg.sender].length */\n      lt\n        /* \"project-10/contracts/contract.sol\":1065:1135  require(entryId < diaryEntries[msg.sender].length, \"Invalid entry ID\") */\n      tag_21\n      jumpi\n      mload(0x40)\n      0x08c379a000000000000000000000000000000000000000000000000000000000\n      dup2\n      mstore\n      0x04\n      add\n      tag_22\n      swap1\n      tag_23\n      jump\t// in\n    tag_22:\n      mload(0x40)\n      dup1\n      swap2\n      sub\n      swap1\n      revert\n    tag_21:\n        /* \"project-10/contracts/contract.sol\":1152:1164  diaryEntries */\n      0x00\n        /* \"project-10/contracts/contract.sol\":1152:1176  diaryEntries[msg.sender] */\n      dup1\n        /* \"project-10/contracts/contract.sol\":1165:1175  msg.sender */\n      caller\n        /* \"project-10/contracts/contract.sol\":1152:1176  diaryEntries[msg.sender] */\n      0xffffffffffffffffffffffffffffffffffffffff\n      and\n      0xffffffffffffffffffffffffffffffffffffffff\n      and\n      dup2\n      mstore\n      0x20\n      add\n      swap1\n      dup2\n      mstore\n      0x20\n      add\n      0x00\n      keccak256\n        /* \"project-10/contracts/contract.sol\":1177:1184  entryId */\n      dup3\n        /* \"project-10/contracts/contract.sol\":1152:1185  diaryEntries[msg.sender][entryId] */\n      dup2\n      sload\n      dup2\n      lt\n      tag_24\n      jumpi\n      tag_25\n      tag_26\n      jump\t// in\n    tag_25:\n    tag_24:\n      swap1\n      0x00\n      mstore\n      keccak256(0x00, 0x20)\n      add\n        /* \"project-10/contracts/contract.sol\":1145:1185  return diaryEntries[msg.sender][entryId] */\n      dup1\n      sload\n      tag_28\n      swap1\n      tag_29\n      jump\t// in\n    tag_28:\n      dup1\n      0x1f\n      add\n      0x20\n      dup1\n      swap2\n      div\n      mul\n      0x20\n      add\n      mload(0x40)\n      swap1\n      dup2\n      add\n      0x40\n      mstore\n      dup1\n      swap3\n      swap2\n      swap1\n      dup2\n      dup2\n      mstore\n      0x20\n      add\n      dup3\n      dup1\n      sload\n      tag_30\n      swap1\n      tag_29\n      jump\t// in\n    tag_30:\n      dup1\n      iszero\n      tag_31\n      jumpi\n      dup1\n      0x1f\n      lt\n      tag_32\n      jumpi\n      0x0100\n      dup1\n      dup4\n      sload\n      div\n      mul\n      dup4\n      mstore\n      swap2\n      0x20\n      add\n      swap2\n      jump(tag_31)\n    tag_32:\n      dup3\n      add\n      swap2\n      swap1\n      0x00\n      mstore\n      keccak256(0x00, 0x20)\n      swap1\n    tag_33:\n      dup2\n      sload\n      dup2\n      mstore\n      swap1\n      0x01\n      add\n      swap1\n      0x20\n      add\n      dup1\n      dup4\n      gt\n      tag_33\n      jumpi\n      dup3\n      swap1\n      sub\n      0x1f\n      and\n      dup3\n      add\n      swap2\n    tag_31:\n      pop\n      pop\n      pop\n      pop\n      pop\n      swap1\n      pop\n        /* \"project-10/contracts/contract.sol\":979:1192  function getDiaryEntry(uint256 entryId) public view returns (string memory) {... */\n      swap2\n      swap1\n      pop\n      jump\t// out\n        /* \"project-10/contracts/contract.sol\":787:902  function getDiaryEntryCount() public view returns (uint256) {... */\n    tag_13:\n        /* \"project-10/contracts/contract.sol\":838:845  uint256 */\n      0x00\n        /* \"project-10/contracts/contract.sol\":864:876  diaryEntries */\n      dup1\n        /* \"project-10/contracts/contract.sol\":864:888  diaryEntries[msg.sender] */\n      0x00\n        /* \"project-10/contracts/contract.sol\":877:887  msg.sender */\n      caller\n        /* \"project-10/contracts/contract.sol\":864:888  diaryEntries[msg.sender] */\n      0xffffffffffffffffffffffffffffffffffffffff\n      and\n      0xffffffffffffffffffffffffffffffffffffffff\n      and\n      dup2\n      mstore\n      0x20\n      add\n      swap1\n      dup2\n      mstore\n      0x20\n      add\n      0x00\n      keccak256\n        /* \"project-10/contracts/contract.sol\":864:895  diaryEntries[msg.sender].length */\n      dup1\n      sload\n      swap1\n      pop\n        /* \"project-10/contracts/contract.sol\":857:895  return diaryEntries[msg.sender].length */\n      swap1\n      pop\n        /* \"project-10/contracts/contract.sol\":787:902  function getDiaryEntryCount() public view returns (uint256) {... */\n      swap1\n      jump\t// out\n        /* \"project-10/contracts/contract.sol\":391:709  function addDiaryEntry(string memory entry) public {... */\n    tag_19:\n        /* \"project-10/contracts/contract.sol\":500:512  diaryEntries */\n      0x00\n        /* \"project-10/contracts/contract.sol\":500:524  diaryEntries[msg.sender] */\n      dup1\n        /* \"project-10/contracts/contract.sol\":513:523  msg.sender */\n      caller\n        /* \"project-10/contracts/contract.sol\":500:524  diaryEntries[msg.sender] */\n      0xffffffffffffffffffffffffffffffffffffffff\n      and\n      0xffffffffffffffffffffffffffffffffffffffff\n      and\n      dup2\n      mstore\n      0x20\n      add\n      swap1\n      dup2\n      mstore\n      0x20\n      add\n      0x00\n      keccak256\n        /* \"project-10/contracts/contract.sol\":530:535  entry */\n      dup2\n        /* \"project-10/contracts/contract.sol\":500:536  diaryEntries[msg.sender].push(entry) */\n      swap1\n      dup1\n      0x01\n      dup2\n      sload\n      add\n      dup1\n      dup3\n      sstore\n      dup1\n      swap2\n      pop\n      pop\n      0x01\n      swap1\n      sub\n      swap1\n      0x00\n      mstore\n      keccak256(0x00, 0x20)\n      add\n      0x00\n      swap1\n      swap2\n      swap1\n      swap2\n      swap1\n      swap2\n      pop\n      swap1\n      dup2\n      tag_37\n      swap2\n      swap1\n      tag_38\n      jump\t// in\n    tag_37:\n      pop\n        /* \"project-10/contracts/contract.sol\":591:606  uint256 entryId */\n      0x00\n        /* \"project-10/contracts/contract.sol\":643:644  1 */\n      0x01\n        /* \"project-10/contracts/contract.sol\":609:621  diaryEntries */\n      0x00\n        /* \"project-10/contracts/contract.sol\":609:633  diaryEntries[msg.sender] */\n      dup1\n        /* \"project-10/contracts/contract.sol\":622:632  msg.sender */\n      caller\n        /* \"project-10/contracts/contract.sol\":609:633  diaryEntries[msg.sender] */\n      0xffffffffffffffffffffffffffffffffffffffff\n      and\n      0xffffffffffffffffffffffffffffffffffffffff\n      and\n      dup2\n      mstore\n      0x20\n      add\n      swap1\n      dup2\n      mstore\n      0x20\n      add\n      0x00\n      keccak256\n        /* \"project-10/contracts/contract.sol\":609:640  diaryEntries[msg.sender].length */\n      dup1\n      sload\n      swap1\n      pop\n        /* \"project-10/contracts/contract.sol\":609:644  diaryEntries[msg.sender].length - 1 */\n      tag_39\n      swap2\n      swap1\n      tag_40\n      jump\t// in\n    tag_39:\n        /* \"project-10/contracts/contract.sol\":591:644  uint256 entryId = diaryEntries[msg.sender].length - 1 */\n      swap1\n      pop\n        /* \"project-10/contracts/contract.sol\":675:685  msg.sender */\n      caller\n        /* \"project-10/contracts/contract.sol\":659:702  DiaryEntryAdded(msg.sender, entryId, entry) */\n      0xffffffffffffffffffffffffffffffffffffffff\n      and\n      0x4ce8f2f255ba329b1fb50af0e6c58fa7beb068af356260a7809274bcdffe899f\n        /* \"project-10/contracts/contract.sol\":687:694  entryId */\n      dup3\n        /* \"project-10/contracts/contract.sol\":696:701  entry */\n      dup5\n        /* \"project-10/contracts/contract.sol\":659:702  DiaryEntryAdded(msg.sender, entryId, entry) */\n      mload(0x40)\n      tag_41\n      swap3\n      swap2\n      swap1\n      tag_42\n      jump\t// in\n    tag_41:\n      mload(0x40)\n      dup1\n      swap2\n      sub\n      swap1\n      log2\n        /* \"project-10/contracts/contract.sol\":442:709  {... */\n      pop\n        /* \"project-10/contracts/contract.sol\":391:709  function addDiaryEntry(string memory entry) public {... */\n      pop\n      jump\t// out\n        /* \"#utility.yul\":7:82   */\n    tag_43:\n        /* \"#utility.yul\":40:46   */\n      0x00\n        /* \"#utility.yul\":73:75   */\n      0x40\n        /* \"#utility.yul\":67:76   */\n      mload\n        /* \"#utility.yul\":57:76   */\n      swap1\n      pop\n        /* \"#utility.yul\":7:82   */\n      swap1\n      jump\t// out\n        /* \"#utility.yul\":88:205   */\n    tag_44:\n        /* \"#utility.yul\":197:198   */\n      0x00\n        /* \"#utility.yul\":194:195   */\n      dup1\n        /* \"#utility.yul\":187:199   */\n      revert\n        /* \"#utility.yul\":211:328   */\n    tag_45:\n        /* \"#utility.yul\":320:321   */\n      0x00\n        /* \"#utility.yul\":317:318   */\n      dup1\n        /* \"#utility.yul\":310:322   */\n      revert\n        /* \"#utility.yul\":334:411   */\n    tag_46:\n        /* \"#utility.yul\":371:378   */\n      0x00\n        /* \"#utility.yul\":400:405   */\n      dup2\n        /* \"#utility.yul\":389:405   */\n      swap1\n      pop\n        /* \"#utility.yul\":334:411   */\n      swap2\n      swap1\n      pop\n      jump\t// out\n        /* \"#utility.yul\":417:539   */\n    tag_47:\n        /* \"#utility.yul\":490:514   */\n      tag_89\n        /* \"#utility.yul\":508:513   */\n      dup2\n        /* \"#utility.yul\":490:514   */\n      tag_46\n      jump\t// in\n    tag_89:\n        /* \"#utility.yul\":483:488   */\n      dup2\n        /* \"#utility.yul\":480:515   */\n      eq\n        /* \"#utility.yul\":470:533   */\n      tag_90\n      jumpi\n        /* \"#utility.yul\":529:530   */\n      0x00\n        /* \"#utility.yul\":526:527   */\n      dup1\n        /* \"#utility.yul\":519:531   */\n      revert\n        /* \"#utility.yul\":470:533   */\n    tag_90:\n        /* \"#utility.yul\":417:539   */\n      pop\n      jump\t// out\n        /* \"#utility.yul\":545:684   */\n    tag_48:\n        /* \"#utility.yul\":591:596   */\n      0x00\n        /* \"#utility.yul\":629:635   */\n      dup2\n        /* \"#utility.yul\":616:636   */\n      calldataload\n        /* \"#utility.yul\":607:636   */\n      swap1\n      pop\n        /* \"#utility.yul\":645:678   */\n      tag_92\n        /* \"#utility.yul\":672:677   */\n      dup2\n        /* \"#utility.yul\":645:678   */\n      tag_47\n      jump\t// in\n    tag_92:\n        /* \"#utility.yul\":545:684   */\n      swap3\n      swap2\n      pop\n      pop\n      jump\t// out\n        /* \"#utility.yul\":690:1019   */\n    tag_8:\n        /* \"#utility.yul\":749:755   */\n      0x00\n        /* \"#utility.yul\":798:800   */\n      0x20\n        /* \"#utility.yul\":786:795   */\n      dup3\n        /* \"#utility.yul\":777:784   */\n      dup5\n        /* \"#utility.yul\":773:796   */\n      sub\n        /* \"#utility.yul\":769:801   */\n      slt\n        /* \"#utility.yul\":766:885   */\n      iszero\n      tag_94\n      jumpi\n        /* \"#utility.yul\":804:883   */\n      tag_95\n      tag_44\n      jump\t// in\n    tag_95:\n        /* \"#utility.yul\":766:885   */\n    tag_94:\n        /* \"#utility.yul\":924:925   */\n      0x00\n        /* \"#utility.yul\":949:1002   */\n      tag_96\n        /* \"#utility.yul\":994:1001   */\n      dup5\n        /* \"#utility.yul\":985:991   */\n      dup3\n        /* \"#utility.yul\":974:983   */\n      dup6\n        /* \"#utility.yul\":970:992   */\n      add\n        /* \"#utility.yul\":949:1002   */\n      tag_48\n      jump\t// in\n    tag_96:\n        /* \"#utility.yul\":939:1002   */\n      swap2\n      pop\n        /* \"#utility.yul\":895:1012   */\n      pop\n        /* \"#utility.yul\":690:1019   */\n      swap3\n      swap2\n      pop\n      pop\n      jump\t// out\n        /* \"#utility.yul\":1025:1124   */\n    tag_49:\n        /* \"#utility.yul\":1077:1083   */\n      0x00\n        /* \"#utility.yul\":1111:1116   */\n      dup2\n        /* \"#utility.yul\":1105:1117   */\n      mload\n        /* \"#utility.yul\":1095:1117   */\n      swap1\n      pop\n        /* \"#utility.yul\":1025:1124   */\n      swap2\n      swap1\n      pop\n      jump\t// out\n        /* \"#utility.yul\":1130:1299   */\n    tag_50:\n        /* \"#utility.yul\":1214:1225   */\n      0x00\n        /* \"#utility.yul\":1248:1254   */\n      dup3\n        /* \"#utility.yul\":1243:1246   */\n      dup3\n        /* \"#utility.yul\":1236:1255   */\n      mstore\n        /* \"#utility.yul\":1288:1292   */\n      0x20\n        /* \"#utility.yul\":1283:1286   */\n      dup3\n        /* \"#utility.yul\":1279:1293   */\n      add\n        /* \"#utility.yul\":1264:1293   */\n      swap1\n      pop\n        /* \"#utility.yul\":1130:1299   */\n      swap3\n      swap2\n      pop\n      pop\n      jump\t// out\n        /* \"#utility.yul\":1305:1444   */\n    tag_51:\n        /* \"#utility.yul\":1394:1400   */\n      dup3\n        /* \"#utility.yul\":1389:1392   */\n      dup2\n        /* \"#utility.yul\":1384:1387   */\n      dup4\n        /* \"#utility.yul\":1378:1401   */\n      mcopy\n        /* \"#utility.yul\":1435:1436   */\n      0x00\n        /* \"#utility.yul\":1426:1432   */\n      dup4\n        /* \"#utility.yul\":1421:1424   */\n      dup4\n        /* \"#utility.yul\":1417:1433   */\n      add\n        /* \"#utility.yul\":1410:1437   */\n      mstore\n        /* \"#utility.yul\":1305:1444   */\n      pop\n      pop\n      pop\n      jump\t// out\n        /* \"#utility.yul\":1450:1552   */\n    tag_52:\n        /* \"#utility.yul\":1491:1497   */\n      0x00\n        /* \"#utility.yul\":1542:1544   */\n      0x1f\n        /* \"#utility.yul\":1538:1545   */\n      not\n        /* \"#utility.yul\":1533:1535   */\n      0x1f\n        /* \"#utility.yul\":1526:1531   */\n      dup4\n        /* \"#utility.yul\":1522:1536   */\n      add\n        /* \"#utility.yul\":1518:1546   */\n      and\n        /* \"#utility.yul\":1508:1546   */\n      swap1\n      pop\n        /* \"#utility.yul\":1450:1552   */\n      swap2\n      swap1\n      pop\n      jump\t// out\n        /* \"#utility.yul\":1558:1935   */\n    tag_53:\n        /* \"#utility.yul\":1646:1649   */\n      0x00\n        /* \"#utility.yul\":1674:1713   */\n      tag_102\n        /* \"#utility.yul\":1707:1712   */\n      dup3\n        /* \"#utility.yul\":1674:1713   */\n      tag_49\n      jump\t// in\n    tag_102:\n        /* \"#utility.yul\":1729:1800   */\n      tag_103\n        /* \"#utility.yul\":1793:1799   */\n      dup2\n        /* \"#utility.yul\":1788:1791   */\n      dup6\n        /* \"#utility.yul\":1729:1800   */\n      tag_50\n      jump\t// in\n    tag_103:\n        /* \"#utility.yul\":1722:1800   */\n      swap4\n      pop\n        /* \"#utility.yul\":1809:1874   */\n      tag_104\n        /* \"#utility.yul\":1867:1873   */\n      dup2\n        /* \"#utility.yul\":1862:1865   */\n      dup6\n        /* \"#utility.yul\":1855:1859   */\n      0x20\n        /* \"#utility.yul\":1848:1853   */\n      dup7\n        /* \"#utility.yul\":1844:1860   */\n      add\n        /* \"#utility.yul\":1809:1874   */\n      tag_51\n      jump\t// in\n    tag_104:\n        /* \"#utility.yul\":1899:1928   */\n      tag_105\n        /* \"#utility.yul\":1921:1927   */\n      dup2\n        /* \"#utility.yul\":1899:1928   */\n      tag_52\n      jump\t// in\n    tag_105:\n        /* \"#utility.yul\":1894:1897   */\n      dup5\n        /* \"#utility.yul\":1890:1929   */\n      add\n        /* \"#utility.yul\":1883:1929   */\n      swap2\n      pop\n        /* \"#utility.yul\":1650:1935   */\n      pop\n        /* \"#utility.yul\":1558:1935   */\n      swap3\n      swap2\n      pop\n      pop\n      jump\t// out\n        /* \"#utility.yul\":1941:2254   */\n    tag_11:\n        /* \"#utility.yul\":2054:2058   */\n      0x00\n        /* \"#utility.yul\":2092:2094   */\n      0x20\n        /* \"#utility.yul\":2081:2090   */\n      dup3\n        /* \"#utility.yul\":2077:2095   */\n      add\n        /* \"#utility.yul\":2069:2095   */\n      swap1\n      pop\n        /* \"#utility.yul\":2141:2150   */\n      dup2\n        /* \"#utility.yul\":2135:2139   */\n      dup2\n        /* \"#utility.yul\":2131:2151   */\n      sub\n        /* \"#utility.yul\":2127:2128   */\n      0x00\n        /* \"#utility.yul\":2116:2125   */\n      dup4\n        /* \"#utility.yul\":2112:2129   */\n      add\n        /* \"#utility.yul\":2105:2152   */\n      mstore\n        /* \"#utility.yul\":2169:2247   */\n      tag_107\n        /* \"#utility.yul\":2242:2246   */\n      dup2\n        /* \"#utility.yul\":2233:2239   */\n      dup5\n        /* \"#utility.yul\":2169:2247   */\n      tag_53\n      jump\t// in\n    tag_107:\n        /* \"#utility.yul\":2161:2247   */\n      swap1\n      pop\n        /* \"#utility.yul\":1941:2254   */\n      swap3\n      swap2\n      pop\n      pop\n      jump\t// out\n        /* \"#utility.yul\":2260:2378   */\n    tag_54:\n        /* \"#utility.yul\":2347:2371   */\n      tag_109\n        /* \"#utility.yul\":2365:2370   */\n      dup2\n        /* \"#utility.yul\":2347:2371   */\n      tag_46\n      jump\t// in\n    tag_109:\n        /* \"#utility.yul\":2342:2345   */\n      dup3\n        /* \"#utility.yul\":2335:2372   */\n      mstore\n        /* \"#utility.yul\":2260:2378   */\n      pop\n      pop\n      jump\t// out\n        /* \"#utility.yul\":2384:2606   */\n    tag_15:\n        /* \"#utility.yul\":2477:2481   */\n      0x00\n        /* \"#utility.yul\":2515:2517   */\n      0x20\n        /* \"#utility.yul\":2504:2513   */\n      dup3\n        /* \"#utility.yul\":2500:2518   */\n      add\n        /* \"#utility.yul\":2492:2518   */\n      swap1\n      pop\n        /* \"#utility.yul\":2528:2599   */\n      tag_111\n        /* \"#utility.yul\":2596:2597   */\n      0x00\n        /* \"#utility.yul\":2585:2594   */\n      dup4\n        /* \"#utility.yul\":2581:2598   */\n      add\n        /* \"#utility.yul\":2572:2578   */\n      dup5\n        /* \"#utility.yul\":2528:2599   */\n      tag_54\n      jump\t// in\n    tag_111:\n        /* \"#utility.yul\":2384:2606   */\n      swap3\n      swap2\n      pop\n      pop\n      jump\t// out\n        /* \"#utility.yul\":2612:2729   */\n    tag_55:\n        /* \"#utility.yul\":2721:2722   */\n      0x00\n        /* \"#utility.yul\":2718:2719   */\n      dup1\n        /* \"#utility.yul\":2711:2723   */\n      revert\n        /* \"#utility.yul\":2735:2852   */\n    tag_56:\n        /* \"#utility.yul\":2844:2845   */\n      0x00\n        /* \"#utility.yul\":2841:2842   */\n      dup1\n        /* \"#utility.yul\":2834:2846   */\n      revert\n        /* \"#utility.yul\":2858:3038   */\n    tag_57:\n        /* \"#utility.yul\":2906:2983   */\n      0x4e487b7100000000000000000000000000000000000000000000000000000000\n        /* \"#utility.yul\":2903:2904   */\n      0x00\n        /* \"#utility.yul\":2896:2984   */\n      mstore\n        /* \"#utility.yul\":3003:3007   */\n      0x41\n        /* \"#utility.yul\":3000:3001   */\n      0x04\n        /* \"#utility.yul\":2993:3008   */\n      mstore\n        /* \"#utility.yul\":3027:3031   */\n      0x24\n        /* \"#utility.yul\":3024:3025   */\n      0x00\n        /* \"#utility.yul\":3017:3032   */\n      revert\n        /* \"#utility.yul\":3044:3325   */\n    tag_58:\n        /* \"#utility.yul\":3127:3154   */\n      tag_116\n        /* \"#utility.yul\":3149:3153   */\n      dup3\n        /* \"#utility.yul\":3127:3154   */\n      tag_52\n      jump\t// in\n    tag_116:\n        /* \"#utility.yul\":3119:3125   */\n      dup2\n        /* \"#utility.yul\":3115:3155   */\n      add\n        /* \"#utility.yul\":3257:3263   */\n      dup2\n        /* \"#utility.yul\":3245:3255   */\n      dup2\n        /* \"#utility.yul\":3242:3264   */\n      lt\n        /* \"#utility.yul\":3221:3239   */\n      0xffffffffffffffff\n        /* \"#utility.yul\":3209:3219   */\n      dup3\n        /* \"#utility.yul\":3206:3240   */\n      gt\n        /* \"#utility.yul\":3203:3265   */\n      or\n        /* \"#utility.yul\":3200:3288   */\n      iszero\n      tag_117\n      jumpi\n        /* \"#utility.yul\":3268:3286   */\n      tag_118\n      tag_57\n      jump\t// in\n    tag_118:\n        /* \"#utility.yul\":3200:3288   */\n    tag_117:\n        /* \"#utility.yul\":3308:3318   */\n      dup1\n        /* \"#utility.yul\":3304:3306   */\n      0x40\n        /* \"#utility.yul\":3297:3319   */\n      mstore\n        /* \"#utility.yul\":3087:3325   */\n      pop\n        /* \"#utility.yul\":3044:3325   */\n      pop\n      pop\n      jump\t// out\n        /* \"#utility.yul\":3331:3460   */\n    tag_59:\n        /* \"#utility.yul\":3365:3371   */\n      0x00\n        /* \"#utility.yul\":3392:3412   */\n      tag_120\n      tag_43\n      jump\t// in\n    tag_120:\n        /* \"#utility.yul\":3382:3412   */\n      swap1\n      pop\n        /* \"#utility.yul\":3421:3454   */\n      tag_121\n        /* \"#utility.yul\":3449:3453   */\n      dup3\n        /* \"#utility.yul\":3441:3447   */\n      dup3\n        /* \"#utility.yul\":3421:3454   */\n      tag_58\n      jump\t// in\n    tag_121:\n        /* \"#utility.yul\":3331:3460   */\n      swap2\n      swap1\n      pop\n      jump\t// out\n        /* \"#utility.yul\":3466:3774   */\n    tag_60:\n        /* \"#utility.yul\":3528:3532   */\n      0x00\n        /* \"#utility.yul\":3618:3636   */\n      0xffffffffffffffff\n        /* \"#utility.yul\":3610:3616   */\n      dup3\n        /* \"#utility.yul\":3607:3637   */\n      gt\n        /* \"#utility.yul\":3604:3660   */\n      iszero\n      tag_123\n      jumpi\n        /* \"#utility.yul\":3640:3658   */\n      tag_124\n      tag_57\n      jump\t// in\n    tag_124:\n        /* \"#utility.yul\":3604:3660   */\n    tag_123:\n        /* \"#utility.yul\":3678:3707   */\n      tag_125\n        /* \"#utility.yul\":3700:3706   */\n      dup3\n        /* \"#utility.yul\":3678:3707   */\n      tag_52\n      jump\t// in\n    tag_125:\n        /* \"#utility.yul\":3670:3707   */\n      swap1\n      pop\n        /* \"#utility.yul\":3762:3766   */\n      0x20\n        /* \"#utility.yul\":3756:3760   */\n      dup2\n        /* \"#utility.yul\":3752:3767   */\n      add\n        /* \"#utility.yul\":3744:3767   */\n      swap1\n      pop\n        /* \"#utility.yul\":3466:3774   */\n      swap2\n      swap1\n      pop\n      jump\t// out\n        /* \"#utility.yul\":3780:3928   */\n    tag_61:\n        /* \"#utility.yul\":3878:3884   */\n      dup3\n        /* \"#utility.yul\":3873:3876   */\n      dup2\n        /* \"#utility.yul\":3868:3871   */\n      dup4\n        /* \"#utility.yul\":3855:3885   */\n      calldatacopy\n        /* \"#utility.yul\":3919:3920   */\n      0x00\n        /* \"#utility.yul\":3910:3916   */\n      dup4\n        /* \"#utility.yul\":3905:3908   */\n      dup4\n        /* \"#utility.yul\":3901:3917   */\n      add\n        /* \"#utility.yul\":3894:3921   */\n      mstore\n        /* \"#utility.yul\":3780:3928   */\n      pop\n      pop\n      pop\n      jump\t// out\n        /* \"#utility.yul\":3934:4359   */\n    tag_62:\n        /* \"#utility.yul\":4012:4017   */\n      0x00\n        /* \"#utility.yul\":4037:4103   */\n      tag_128\n        /* \"#utility.yul\":4053:4102   */\n      tag_129\n        /* \"#utility.yul\":4095:4101   */\n      dup5\n        /* \"#utility.yul\":4053:4102   */\n      tag_60\n      jump\t// in\n    tag_129:\n        /* \"#utility.yul\":4037:4103   */\n      tag_59\n      jump\t// in\n    tag_128:\n        /* \"#utility.yul\":4028:4103   */\n      swap1\n      pop\n        /* \"#utility.yul\":4126:4132   */\n      dup3\n        /* \"#utility.yul\":4119:4124   */\n      dup2\n        /* \"#utility.yul\":4112:4133   */\n      mstore\n        /* \"#utility.yul\":4164:4168   */\n      0x20\n        /* \"#utility.yul\":4157:4162   */\n      dup2\n        /* \"#utility.yul\":4153:4169   */\n      add\n        /* \"#utility.yul\":4202:4205   */\n      dup5\n        /* \"#utility.yul\":4193:4199   */\n      dup5\n        /* \"#utility.yul\":4188:4191   */\n      dup5\n        /* \"#utility.yul\":4184:4200   */\n      add\n        /* \"#utility.yul\":4181:4206   */\n      gt\n        /* \"#utility.yul\":4178:4290   */\n      iszero\n      tag_130\n      jumpi\n        /* \"#utility.yul\":4209:4288   */\n      tag_131\n      tag_56\n      jump\t// in\n    tag_131:\n        /* \"#utility.yul\":4178:4290   */\n    tag_130:\n        /* \"#utility.yul\":4299:4353   */\n      tag_132\n        /* \"#utility.yul\":4346:4352   */\n      dup5\n        /* \"#utility.yul\":4341:4344   */\n      dup3\n        /* \"#utility.yul\":4336:4339   */\n      dup6\n        /* \"#utility.yul\":4299:4353   */\n      tag_61\n      jump\t// in\n    tag_132:\n        /* \"#utility.yul\":4018:4359   */\n      pop\n        /* \"#utility.yul\":3934:4359   */\n      swap4\n      swap3\n      pop\n      pop\n      pop\n      jump\t// out\n        /* \"#utility.yul\":4379:4719   */\n    tag_63:\n        /* \"#utility.yul\":4435:4440   */\n      0x00\n        /* \"#utility.yul\":4484:4487   */\n      dup3\n        /* \"#utility.yul\":4477:4481   */\n      0x1f\n        /* \"#utility.yul\":4469:4475   */\n      dup4\n        /* \"#utility.yul\":4465:4482   */\n      add\n        /* \"#utility.yul\":4461:4488   */\n      slt\n        /* \"#utility.yul\":4451:4573   */\n      tag_134\n      jumpi\n        /* \"#utility.yul\":4492:4571   */\n      tag_135\n      tag_55\n      jump\t// in\n    tag_135:\n        /* \"#utility.yul\":4451:4573   */\n    tag_134:\n        /* \"#utility.yul\":4609:4615   */\n      dup2\n        /* \"#utility.yul\":4596:4616   */\n      calldataload\n        /* \"#utility.yul\":4634:4713   */\n      tag_136\n        /* \"#utility.yul\":4709:4712   */\n      dup5\n        /* \"#utility.yul\":4701:4707   */\n      dup3\n        /* \"#utility.yul\":4694:4698   */\n      0x20\n        /* \"#utility.yul\":4686:4692   */\n      dup7\n        /* \"#utility.yul\":4682:4699   */\n      add\n        /* \"#utility.yul\":4634:4713   */\n      tag_62\n      jump\t// in\n    tag_136:\n        /* \"#utility.yul\":4625:4713   */\n      swap2\n      pop\n        /* \"#utility.yul\":4441:4719   */\n      pop\n        /* \"#utility.yul\":4379:4719   */\n      swap3\n      swap2\n      pop\n      pop\n      jump\t// out\n        /* \"#utility.yul\":4725:5234   */\n    tag_18:\n        /* \"#utility.yul\":4794:4800   */\n      0x00\n        /* \"#utility.yul\":4843:4845   */\n      0x20\n        /* \"#utility.yul\":4831:4840   */\n      dup3\n        /* \"#utility.yul\":4822:4829   */\n      dup5\n        /* \"#utility.yul\":4818:4841   */\n      sub\n        /* \"#utility.yul\":4814:4846   */\n      slt\n        /* \"#utility.yul\":4811:4930   */\n      iszero\n      tag_138\n      jumpi\n        /* \"#utility.yul\":4849:4928   */\n      tag_139\n      tag_44\n      jump\t// in\n    tag_139:\n        /* \"#utility.yul\":4811:4930   */\n    tag_138:\n        /* \"#utility.yul\":4997:4998   */\n      0x00\n        /* \"#utility.yul\":4986:4995   */\n      dup3\n        /* \"#utility.yul\":4982:4999   */\n      add\n        /* \"#utility.yul\":4969:5000   */\n      calldataload\n        /* \"#utility.yul\":5027:5045   */\n      0xffffffffffffffff\n        /* \"#utility.yul\":5019:5025   */\n      dup2\n        /* \"#utility.yul\":5016:5046   */\n      gt\n        /* \"#utility.yul\":5013:5130   */\n      iszero\n      tag_140\n      jumpi\n        /* \"#utility.yul\":5049:5128   */\n      tag_141\n      tag_45\n      jump\t// in\n    tag_141:\n        /* \"#utility.yul\":5013:5130   */\n    tag_140:\n        /* \"#utility.yul\":5154:5217   */\n      tag_142\n        /* \"#utility.yul\":5209:5216   */\n      dup5\n        /* \"#utility.yul\":5200:5206   */\n      dup3\n        /* \"#utility.yul\":5189:5198   */\n      dup6\n        /* \"#utility.yul\":5185:5207   */\n      add\n        /* \"#utility.yul\":5154:5217   */\n      tag_63\n      jump\t// in\n    tag_142:\n        /* \"#utility.yul\":5144:5217   */\n      swap2\n      pop\n        /* \"#utility.yul\":4940:5227   */\n      pop\n        /* \"#utility.yul\":4725:5234   */\n      swap3\n      swap2\n      pop\n      pop\n      jump\t// out\n        /* \"#utility.yul\":5240:5406   */\n    tag_64:\n        /* \"#utility.yul\":5380:5398   */\n      0x496e76616c696420656e74727920494400000000000000000000000000000000\n        /* \"#utility.yul\":5376:5377   */\n      0x00\n        /* \"#utility.yul\":5368:5374   */\n      dup3\n        /* \"#utility.yul\":5364:5378   */\n      add\n        /* \"#utility.yul\":5357:5399   */\n      mstore\n        /* \"#utility.yul\":5240:5406   */\n      pop\n      jump\t// out\n        /* \"#utility.yul\":5412:5778   */\n    tag_65:\n        /* \"#utility.yul\":5554:5557   */\n      0x00\n        /* \"#utility.yul\":5575:5642   */\n      tag_145\n        /* \"#utility.yul\":5639:5641   */\n      0x10\n        /* \"#utility.yul\":5634:5637   */\n      dup4\n        /* \"#utility.yul\":5575:5642   */\n      tag_50\n      jump\t// in\n    tag_145:\n        /* \"#utility.yul\":5568:5642   */\n      swap2\n      pop\n        /* \"#utility.yul\":5651:5744   */\n      tag_146\n        /* \"#utility.yul\":5740:5743   */\n      dup3\n        /* \"#utility.yul\":5651:5744   */\n      tag_64\n      jump\t// in\n    tag_146:\n        /* \"#utility.yul\":5769:5771   */\n      0x20\n        /* \"#utility.yul\":5764:5767   */\n      dup3\n        /* \"#utility.yul\":5760:5772   */\n      add\n        /* \"#utility.yul\":5753:5772   */\n      swap1\n      pop\n        /* \"#utility.yul\":5412:5778   */\n      swap2\n      swap1\n      pop\n      jump\t// out\n        /* \"#utility.yul\":5784:6203   */\n    tag_23:\n        /* \"#utility.yul\":5950:5954   */\n      0x00\n        /* \"#utility.yul\":5988:5990   */\n      0x20\n        /* \"#utility.yul\":5977:5986   */\n      dup3\n        /* \"#utility.yul\":5973:5991   */\n      add\n        /* \"#utility.yul\":5965:5991   */\n      swap1\n      pop\n        /* \"#utility.yul\":6037:6046   */\n      dup2\n        /* \"#utility.yul\":6031:6035   */\n      dup2\n        /* \"#utility.yul\":6027:6047   */\n      sub\n        /* \"#utility.yul\":6023:6024   */\n      0x00\n        /* \"#utility.yul\":6012:6021   */\n      dup4\n        /* \"#utility.yul\":6008:6025   */\n      add\n        /* \"#utility.yul\":6001:6048   */\n      mstore\n        /* \"#utility.yul\":6065:6196   */\n      tag_148\n        /* \"#utility.yul\":6191:6195   */\n      dup2\n        /* \"#utility.yul\":6065:6196   */\n      tag_65\n      jump\t// in\n    tag_148:\n        /* \"#utility.yul\":6057:6196   */\n      swap1\n      pop\n        /* \"#utility.yul\":5784:6203   */\n      swap2\n      swap1\n      pop\n      jump\t// out\n        /* \"#utility.yul\":6209:6389   */\n    tag_26:\n        /* \"#utility.yul\":6257:6334   */\n      0x4e487b7100000000000000000000000000000000000000000000000000000000\n        /* \"#utility.yul\":6254:6255   */\n      0x00\n        /* \"#utility.yul\":6247:6335   */\n      mstore\n        /* \"#utility.yul\":6354:6358   */\n      0x32\n        /* \"#utility.yul\":6351:6352   */\n      0x04\n        /* \"#utility.yul\":6344:6359   */\n      mstore\n        /* \"#utility.yul\":6378:6382   */\n      0x24\n        /* \"#utility.yul\":6375:6376   */\n      0x00\n        /* \"#utility.yul\":6368:6383   */\n      revert\n        /* \"#utility.yul\":6395:6575   */\n    tag_66:\n        /* \"#utility.yul\":6443:6520   */\n      0x4e487b7100000000000000000000000000000000000000000000000000000000\n        /* \"#utility.yul\":6440:6441   */\n      0x00\n        /* \"#utility.yul\":6433:6521   */\n      mstore\n        /* \"#utility.yul\":6540:6544   */\n      0x22\n        /* \"#utility.yul\":6537:6538   */\n      0x04\n        /* \"#utility.yul\":6530:6545   */\n      mstore\n        /* \"#utility.yul\":6564:6568   */\n      0x24\n        /* \"#utility.yul\":6561:6562   */\n      0x00\n        /* \"#utility.yul\":6554:6569   */\n      revert\n        /* \"#utility.yul\":6581:6901   */\n    tag_29:\n        /* \"#utility.yul\":6625:6631   */\n      0x00\n        /* \"#utility.yul\":6662:6663   */\n      0x02\n        /* \"#utility.yul\":6656:6660   */\n      dup3\n        /* \"#utility.yul\":6652:6664   */\n      div\n        /* \"#utility.yul\":6642:6664   */\n      swap1\n      pop\n        /* \"#utility.yul\":6709:6710   */\n      0x01\n        /* \"#utility.yul\":6703:6707   */\n      dup3\n        /* \"#utility.yul\":6699:6711   */\n      and\n        /* \"#utility.yul\":6730:6748   */\n      dup1\n        /* \"#utility.yul\":6720:6801   */\n      tag_152\n      jumpi\n        /* \"#utility.yul\":6786:6790   */\n      0x7f\n        /* \"#utility.yul\":6778:6784   */\n      dup3\n        /* \"#utility.yul\":6774:6791   */\n      and\n        /* \"#utility.yul\":6764:6791   */\n      swap2\n      pop\n        /* \"#utility.yul\":6720:6801   */\n    tag_152:\n        /* \"#utility.yul\":6848:6850   */\n      0x20\n        /* \"#utility.yul\":6840:6846   */\n      dup3\n        /* \"#utility.yul\":6837:6851   */\n      lt\n        /* \"#utility.yul\":6817:6835   */\n      dup2\n        /* \"#utility.yul\":6814:6852   */\n      sub\n        /* \"#utility.yul\":6811:6895   */\n      tag_153\n      jumpi\n        /* \"#utility.yul\":6867:6885   */\n      tag_154\n      tag_66\n      jump\t// in\n    tag_154:\n        /* \"#utility.yul\":6811:6895   */\n    tag_153:\n        /* \"#utility.yul\":6632:6901   */\n      pop\n        /* \"#utility.yul\":6581:6901   */\n      swap2\n      swap1\n      pop\n      jump\t// out\n        /* \"#utility.yul\":6907:7048   */\n    tag_67:\n        /* \"#utility.yul\":6956:6960   */\n      0x00\n        /* \"#utility.yul\":6979:6982   */\n      dup2\n        /* \"#utility.yul\":6971:6982   */\n      swap1\n      pop\n        /* \"#utility.yul\":7002:7005   */\n      dup2\n        /* \"#utility.yul\":6999:7000   */\n      0x00\n        /* \"#utility.yul\":6992:7006   */\n      mstore\n        /* \"#utility.yul\":7036:7040   */\n      0x20\n        /* \"#utility.yul\":7033:7034   */\n      0x00\n        /* \"#utility.yul\":7023:7041   */\n      keccak256\n        /* \"#utility.yul\":7015:7041   */\n      swap1\n      pop\n        /* \"#utility.yul\":6907:7048   */\n      swap2\n      swap1\n      pop\n      jump\t// out\n        /* \"#utility.yul\":7054:7147   */\n    tag_68:\n        /* \"#utility.yul\":7091:7097   */\n      0x00\n        /* \"#utility.yul\":7138:7140   */\n      0x20\n        /* \"#utility.yul\":7133:7135   */\n      0x1f\n        /* \"#utility.yul\":7126:7131   */\n      dup4\n        /* \"#utility.yul\":7122:7136   */\n      add\n        /* \"#utility.yul\":7118:7141   */\n      div\n        /* \"#utility.yul\":7108:7141   */\n      swap1\n      pop\n        /* \"#utility.yul\":7054:7147   */\n      swap2\n      swap1\n      pop\n      jump\t// out\n        /* \"#utility.yul\":7153:7260   */\n    tag_69:\n        /* \"#utility.yul\":7197:7205   */\n      0x00\n        /* \"#utility.yul\":7247:7252   */\n      dup3\n        /* \"#utility.yul\":7241:7245   */\n      dup3\n        /* \"#utility.yul\":7237:7253   */\n      shl\n        /* \"#utility.yul\":7216:7253   */\n      swap1\n      pop\n        /* \"#utility.yul\":7153:7260   */\n      swap3\n      swap2\n      pop\n      pop\n      jump\t// out\n        /* \"#utility.yul\":7266:7659   */\n    tag_70:\n        /* \"#utility.yul\":7335:7341   */\n      0x00\n        /* \"#utility.yul\":7385:7386   */\n      0x08\n        /* \"#utility.yul\":7373:7383   */\n      dup4\n        /* \"#utility.yul\":7369:7387   */\n      mul\n        /* \"#utility.yul\":7408:7505   */\n      tag_159\n        /* \"#utility.yul\":7438:7504   */\n      0xffffffffffffffffffffffffffffffffffffffffffffffffffffffffffffffff\n        /* \"#utility.yul\":7427:7436   */\n      dup3\n        /* \"#utility.yul\":7408:7505   */\n      tag_69\n      jump\t// in\n    tag_159:\n        /* \"#utility.yul\":7526:7565   */\n      tag_160\n        /* \"#utility.yul\":7556:7564   */\n      dup7\n        /* \"#utility.yul\":7545:7554   */\n      dup4\n        /* \"#utility.yul\":7526:7565   */\n      tag_69\n      jump\t// in\n    tag_160:\n        /* \"#utility.yul\":7514:7565   */\n      swap6\n      pop\n        /* \"#utility.yul\":7598:7602   */\n      dup1\n        /* \"#utility.yul\":7594:7603   */\n      not\n        /* \"#utility.yul\":7587:7592   */\n      dup5\n        /* \"#utility.yul\":7583:7604   */\n      and\n        /* \"#utility.yul\":7574:7604   */\n      swap4\n      pop\n        /* \"#utility.yul\":7647:7651   */\n      dup1\n        /* \"#utility.yul\":7637:7645   */\n      dup7\n        /* \"#utility.yul\":7633:7652   */\n      and\n        /* \"#utility.yul\":7626:7631   */\n      dup5\n        /* \"#utility.yul\":7623:7653   */\n      or\n        /* \"#utility.yul\":7613:7653   */\n      swap3\n      pop\n        /* \"#utility.yul\":7342:7659   */\n      pop\n      pop\n        /* \"#utility.yul\":7266:7659   */\n      swap4\n      swap3\n      pop\n      pop\n      pop\n      jump\t// out\n        /* \"#utility.yul\":7665:7725   */\n    tag_71:\n        /* \"#utility.yul\":7693:7696   */\n      0x00\n        /* \"#utility.yul\":7714:7719   */\n      dup2\n        /* \"#utility.yul\":7707:7719   */\n      swap1\n      pop\n        /* \"#utility.yul\":7665:7725   */\n      swap2\n      swap1\n      pop\n      jump\t// out\n        /* \"#utility.yul\":7731:7873   */\n    tag_72:\n        /* \"#utility.yul\":7781:7790   */\n      0x00\n        /* \"#utility.yul\":7814:7867   */\n      tag_163\n        /* \"#utility.yul\":7832:7866   */\n      tag_164\n        /* \"#utility.yul\":7841:7865   */\n      tag_165\n        /* \"#utility.yul\":7859:7864   */\n      dup5\n        /* \"#utility.yul\":7841:7865   */\n      tag_46\n      jump\t// in\n    tag_165:\n        /* \"#utility.yul\":7832:7866   */\n      tag_71\n      jump\t// in\n    tag_164:\n        /* \"#utility.yul\":7814:7867   */\n      tag_46\n      jump\t// in\n    tag_163:\n        /* \"#utility.yul\":7801:7867   */\n      swap1\n      pop\n        /* \"#utility.yul\":7731:7873   */\n      swap2\n      swap1\n      pop\n      jump\t// out\n        /* \"#utility.yul\":7879:7954   */\n    tag_73:\n        /* \"#utility.yul\":7922:7925   */\n      0x00\n        /* \"#utility.yul\":7943:7948   */\n      dup2\n        /* \"#utility.yul\":7936:7948   */\n      swap1\n      pop\n        /* \"#utility.yul\":7879:7954   */\n      swap2\n      swap1\n      pop\n      jump\t// out\n        /* \"#utility.yul\":7960:8229   */\n    tag_74:\n        /* \"#utility.yul\":8070:8109   */\n      tag_168\n        /* \"#utility.yul\":8101:8108   */\n      dup4\n        /* \"#utility.yul\":8070:8109   */\n      tag_72\n      jump\t// in\n    tag_168:\n        /* \"#utility.yul\":8131:8222   */\n      tag_169\n        /* \"#utility.yul\":8180:8221   */\n      tag_170\n        /* \"#utility.yul\":8204:8220   */\n      dup3\n        /* \"#utility.yul\":8180:8221   */\n      tag_73\n      jump\t// in\n    tag_170:\n        /* \"#utility.yul\":8172:8178   */\n      dup5\n        /* \"#utility.yul\":8165:8169   */\n      dup5\n        /* \"#utility.yul\":8159:8170   */\n      sload\n        /* \"#utility.yul\":8131:8222   */\n      tag_70\n      jump\t// in\n    tag_169:\n        /* \"#utility.yul\":8125:8129   */\n      dup3\n        /* \"#utility.yul\":8118:8223   */\n      sstore\n        /* \"#utility.yul\":8036:8229   */\n      pop\n        /* \"#utility.yul\":7960:8229   */\n      pop\n      pop\n      pop\n      jump\t// out\n        /* \"#utility.yul\":8235:8308   */\n    tag_75:\n        /* \"#utility.yul\":8280:8283   */\n      0x00\n        /* \"#utility.yul\":8235:8308   */\n      swap1\n      jump\t// out\n        /* \"#utility.yul\":8314:8503   */\n    tag_76:\n        /* \"#utility.yul\":8391:8423   */\n      tag_173\n      tag_75\n      jump\t// in\n    tag_173:\n        /* \"#utility.yul\":8432:8497   */\n      tag_174\n        /* \"#utility.yul\":8490:8496   */\n      dup2\n        /* \"#utility.yul\":8482:8488   */\n      dup5\n        /* \"#utility.yul\":8476:8480   */\n      dup5\n        /* \"#utility.yul\":8432:8497   */\n      tag_74\n      jump\t// in\n    tag_174:\n        /* \"#utility.yul\":8367:8503   */\n      pop\n        /* \"#utility.yul\":8314:8503   */\n      pop\n      pop\n      jump\t// out\n        /* \"#utility.yul\":8509:8695   */\n    tag_77:\n        /* \"#utility.yul\":8569:8689   */\n    tag_176:\n        /* \"#utility.yul\":8586:8589   */\n      dup2\n        /* \"#utility.yul\":8579:8584   */\n      dup2\n        /* \"#utility.yul\":8576:8590   */\n      lt\n        /* \"#utility.yul\":8569:8689   */\n      iszero\n      tag_178\n      jumpi\n        /* \"#utility.yul\":8640:8679   */\n      tag_179\n        /* \"#utility.yul\":8677:8678   */\n      0x00\n        /* \"#utility.yul\":8670:8675   */\n      dup3\n        /* \"#utility.yul\":8640:8679   */\n      tag_76\n      jump\t// in\n    tag_179:\n        /* \"#utility.yul\":8613:8614   */\n      0x01\n        /* \"#utility.yul\":8606:8611   */\n      dup2\n        /* \"#utility.yul\":8602:8615   */\n      add\n        /* \"#utility.yul\":8593:8615   */\n      swap1\n      pop\n        /* \"#utility.yul\":8569:8689   */\n      jump(tag_176)\n    tag_178:\n        /* \"#utility.yul\":8509:8695   */\n      pop\n      pop\n      jump\t// out\n        /* \"#utility.yul\":8701:9244   */\n    tag_78:\n        /* \"#utility.yul\":8802:8804   */\n      0x1f\n        /* \"#utility.yul\":8797:8800   */\n      dup3\n        /* \"#utility.yul\":8794:8805   */\n      gt\n        /* \"#utility.yul\":8791:9237   */\n      iszero\n      tag_181\n      jumpi\n        /* \"#utility.yul\":8836:8874   */\n      tag_182\n        /* \"#utility.yul\":8868:8873   */\n      dup2\n        /* \"#utility.yul\":8836:8874   */\n      tag_67\n      jump\t// in\n    tag_182:\n        /* \"#utility.yul\":8920:8949   */\n      tag_183\n        /* \"#utility.yul\":8938:8948   */\n      dup5\n        /* \"#utility.yul\":8920:8949   */\n      tag_68\n      jump\t// in\n    tag_183:\n        /* \"#utility.yul\":8910:8918   */\n      dup2\n        /* \"#utility.yul\":8906:8950   */\n      add\n        /* \"#utility.yul\":9103:9105   */\n      0x20\n        /* \"#utility.yul\":9091:9101   */\n      dup6\n        /* \"#utility.yul\":9088:9106   */\n      lt\n        /* \"#utility.yul\":9085:9134   */\n      iszero\n      tag_184\n      jumpi\n        /* \"#utility.yul\":9124:9132   */\n      dup2\n        /* \"#utility.yul\":9109:9132   */\n      swap1\n      pop\n        /* \"#utility.yul\":9085:9134   */\n    tag_184:\n        /* \"#utility.yul\":9147:9227   */\n      tag_185\n        /* \"#utility.yul\":9203:9225   */\n      tag_186\n        /* \"#utility.yul\":9221:9224   */\n      dup6\n        /* \"#utility.yul\":9203:9225   */\n      tag_68\n      jump\t// in\n    tag_186:\n        /* \"#utility.yul\":9193:9201   */\n      dup4\n        /* \"#utility.yul\":9189:9226   */\n      add\n        /* \"#utility.yul\":9176:9187   */\n      dup3\n        /* \"#utility.yul\":9147:9227   */\n      tag_77\n      jump\t// in\n    tag_185:\n        /* \"#utility.yul\":8806:9237   */\n      pop\n      pop\n        /* \"#utility.yul\":8791:9237   */\n    tag_181:\n        /* \"#utility.yul\":8701:9244   */\n      pop\n      pop\n      pop\n      jump\t// out\n        /* \"#utility.yul\":9250:9367   */\n    tag_79:\n        /* \"#utility.yul\":9304:9312   */\n      0x00\n        /* \"#utility.yul\":9354:9359   */\n      dup3\n        /* \"#utility.yul\":9348:9352   */\n      dup3\n        /* \"#utility.yul\":9344:9360   */\n      shr\n        /* \"#utility.yul\":9323:9360   */\n      swap1\n      pop\n        /* \"#utility.yul\":9250:9367   */\n      swap3\n      swap2\n      pop\n      pop\n      jump\t// out\n        /* \"#utility.yul\":9373:9542   */\n    tag_80:\n        /* \"#utility.yul\":9417:9423   */\n      0x00\n        /* \"#utility.yul\":9450:9501   */\n      tag_189\n        /* \"#utility.yul\":9498:9499   */\n      0x00\n        /* \"#utility.yul\":9494:9500   */\n      not\n        /* \"#utility.yul\":9486:9491   */\n      dup5\n        /* \"#utility.yul\":9483:9484   */\n      0x08\n        /* \"#utility.yul\":9479:9492   */\n      mul\n        /* \"#utility.yul\":9450:9501   */\n      tag_79\n      jump\t// in\n    tag_189:\n        /* \"#utility.yul\":9446:9502   */\n      not\n        /* \"#utility.yul\":9531:9535   */\n      dup1\n        /* \"#utility.yul\":9525:9529   */\n      dup4\n        /* \"#utility.yul\":9521:9536   */\n      and\n        /* \"#utility.yul\":9511:9536   */\n      swap2\n      pop\n        /* \"#utility.yul\":9424:9542   */\n      pop\n        /* \"#utility.yul\":9373:9542   */\n      swap3\n      swap2\n      pop\n      pop\n      jump\t// out\n        /* \"#utility.yul\":9547:9842   */\n    tag_81:\n        /* \"#utility.yul\":9623:9627   */\n      0x00\n        /* \"#utility.yul\":9769:9798   */\n      tag_191\n        /* \"#utility.yul\":9794:9797   */\n      dup4\n        /* \"#utility.yul\":9788:9792   */\n      dup4\n        /* \"#utility.yul\":9769:9798   */\n      tag_80\n      jump\t// in\n    tag_191:\n        /* \"#utility.yul\":9761:9798   */\n      swap2\n      pop\n        /* \"#utility.yul\":9831:9834   */\n      dup3\n        /* \"#utility.yul\":9828:9829   */\n      0x02\n        /* \"#utility.yul\":9824:9835   */\n      mul\n        /* \"#utility.yul\":9818:9822   */\n      dup3\n        /* \"#utility.yul\":9815:9836   */\n      or\n        /* \"#utility.yul\":9807:9836   */\n      swap1\n      pop\n        /* \"#utility.yul\":9547:9842   */\n      swap3\n      swap2\n      pop\n      pop\n      jump\t// out\n        /* \"#utility.yul\":9847:11242   */\n    tag_38:\n        /* \"#utility.yul\":9964:10001   */\n      tag_193\n        /* \"#utility.yul\":9997:10000   */\n      dup3\n        /* \"#utility.yul\":9964:10001   */\n      tag_49\n      jump\t// in\n    tag_193:\n        /* \"#utility.yul\":10066:10084   */\n      0xffffffffffffffff\n        /* \"#utility.yul\":10058:10064   */\n      dup2\n        /* \"#utility.yul\":10055:10085   */\n      gt\n        /* \"#utility.yul\":10052:10108   */\n      iszero\n      tag_194\n      jumpi\n        /* \"#utility.yul\":10088:10106   */\n      tag_195\n      tag_57\n      jump\t// in\n    tag_195:\n        /* \"#utility.yul\":10052:10108   */\n    tag_194:\n        /* \"#utility.yul\":10132:10170   */\n      tag_196\n        /* \"#utility.yul\":10164:10168   */\n      dup3\n        /* \"#utility.yul\":10158:10169   */\n      sload\n        /* \"#utility.yul\":10132:10170   */\n      tag_29\n      jump\t// in\n    tag_196:\n        /* \"#utility.yul\":10217:10284   */\n      tag_197\n        /* \"#utility.yul\":10277:10283   */\n      dup3\n        /* \"#utility.yul\":10269:10275   */\n      dup3\n        /* \"#utility.yul\":10263:10267   */\n      dup6\n        /* \"#utility.yul\":10217:10284   */\n      tag_78\n      jump\t// in\n    tag_197:\n        /* \"#utility.yul\":10311:10312   */\n      0x00\n        /* \"#utility.yul\":10335:10339   */\n      0x20\n        /* \"#utility.yul\":10322:10339   */\n      swap1\n      pop\n        /* \"#utility.yul\":10367:10369   */\n      0x1f\n        /* \"#utility.yul\":10359:10365   */\n      dup4\n        /* \"#utility.yul\":10356:10370   */\n      gt\n        /* \"#utility.yul\":10384:10385   */\n      0x01\n        /* \"#utility.yul\":10379:10997   */\n      dup2\n      eq\n      tag_199\n      jumpi\n        /* \"#utility.yul\":11041:11042   */\n      0x00\n        /* \"#utility.yul\":11058:11064   */\n      dup5\n        /* \"#utility.yul\":11055:11132   */\n      iszero\n      tag_200\n      jumpi\n        /* \"#utility.yul\":11107:11116   */\n      dup3\n        /* \"#utility.yul\":11102:11105   */\n      dup8\n        /* \"#utility.yul\":11098:11117   */\n      add\n        /* \"#utility.yul\":11092:11118   */\n      mload\n        /* \"#utility.yul\":11083:11118   */\n      swap1\n      pop\n        /* \"#utility.yul\":11055:11132   */\n    tag_200:\n        /* \"#utility.yul\":11158:11225   */\n      tag_201\n        /* \"#utility.yul\":11218:11224   */\n      dup6\n        /* \"#utility.yul\":11211:11216   */\n      dup3\n        /* \"#utility.yul\":11158:11225   */\n      tag_81\n      jump\t// in\n    tag_201:\n        /* \"#utility.yul\":11152:11156   */\n      dup7\n        /* \"#utility.yul\":11145:11226   */\n      sstore\n        /* \"#utility.yul\":11014:11236   */\n      pop\n        /* \"#utility.yul\":10349:11236   */\n      jump(tag_198)\n        /* \"#utility.yul\":10379:10997   */\n    tag_199:\n        /* \"#utility.yul\":10431:10435   */\n      0x1f\n        /* \"#utility.yul\":10427:10436   */\n      not\n        /* \"#utility.yul\":10419:10425   */\n      dup5\n        /* \"#utility.yul\":10415:10437   */\n      and\n        /* \"#utility.yul\":10465:10502   */\n      tag_202\n        /* \"#utility.yul\":10497:10501   */\n      dup7\n        /* \"#utility.yul\":10465:10502   */\n      tag_67\n      jump\t// in\n    tag_202:\n        /* \"#utility.yul\":10524:10525   */\n      0x00\n        /* \"#utility.yul\":10538:10746   */\n    tag_203:\n        /* \"#utility.yul\":10552:10559   */\n      dup3\n        /* \"#utility.yul\":10549:10550   */\n      dup2\n        /* \"#utility.yul\":10546:10560   */\n      lt\n        /* \"#utility.yul\":10538:10746   */\n      iszero\n      tag_205\n      jumpi\n        /* \"#utility.yul\":10631:10640   */\n      dup5\n        /* \"#utility.yul\":10626:10629   */\n      dup10\n        /* \"#utility.yul\":10622:10641   */\n      add\n        /* \"#utility.yul\":10616:10642   */\n      mload\n        /* \"#utility.yul\":10608:10614   */\n      dup3\n        /* \"#utility.yul\":10601:10643   */\n      sstore\n        /* \"#utility.yul\":10682:10683   */\n      0x01\n        /* \"#utility.yul\":10674:10680   */\n      dup3\n        /* \"#utility.yul\":10670:10684   */\n      add\n        /* \"#utility.yul\":10660:10684   */\n      swap2\n      pop\n        /* \"#utility.yul\":10729:10731   */\n      0x20\n        /* \"#utility.yul\":10718:10727   */\n      dup6\n        /* \"#utility.yul\":10714:10732   */\n      add\n        /* \"#utility.yul\":10701:10732   */\n      swap5\n      pop\n        /* \"#utility.yul\":10575:10579   */\n      0x20\n        /* \"#utility.yul\":10572:10573   */\n      dup2\n        /* \"#utility.yul\":10568:10580   */\n      add\n        /* \"#utility.yul\":10563:10580   */\n      swap1\n      pop\n        /* \"#utility.yul\":10538:10746   */\n      jump(tag_203)\n    tag_205:\n        /* \"#utility.yul\":10774:10780   */\n      dup7\n        /* \"#utility.yul\":10765:10772   */\n      dup4\n        /* \"#utility.yul\":10762:10781   */\n      lt\n        /* \"#utility.yul\":10759:10938   */\n      iszero\n      tag_206\n      jumpi\n        /* \"#utility.yul\":10832:10841   */\n      dup5\n        /* \"#utility.yul\":10827:10830   */\n      dup10\n        /* \"#utility.yul\":10823:10842   */\n      add\n        /* \"#utility.yul\":10817:10843   */\n      mload\n        /* \"#utility.yul\":10875:10923   */\n      tag_207\n        /* \"#utility.yul\":10917:10921   */\n      0x1f\n        /* \"#utility.yul\":10909:10915   */\n      dup10\n        /* \"#utility.yul\":10905:10922   */\n      and\n        /* \"#utility.yul\":10894:10903   */\n      dup3\n        /* \"#utility.yul\":10875:10923   */\n      tag_80\n      jump\t// in\n    tag_207:\n        /* \"#utility.yul\":10867:10873   */\n      dup4\n        /* \"#utility.yul\":10860:10924   */\n      sstore\n        /* \"#utility.yul\":10782:10938   */\n      pop\n        /* \"#utility.yul\":10759:10938   */\n    tag_206:\n        /* \"#utility.yul\":10984:10985   */\n      0x01\n        /* \"#utility.yul\":10980:10981   */\n      0x02\n        /* \"#utility.yul\":10972:10978   */\n      dup9\n        /* \"#utility.yul\":10968:10982   */\n      mul\n        /* \"#utility.yul\":10964:10986   */\n      add\n        /* \"#utility.yul\":10958:10962   */\n      dup9\n        /* \"#utility.yul\":10951:10987   */\n      sstore\n        /* \"#utility.yul\":10386:10997   */\n      pop\n      pop\n      pop\n        /* \"#utility.yul\":10349:11236   */\n    tag_198:\n      pop\n        /* \"#utility.yul\":9939:11242   */\n      pop\n      pop\n      pop\n        /* \"#utility.yul\":9847:11242   */\n      pop\n      pop\n      jump\t// out\n        /* \"#utility.yul\":11248:11428   */\n    tag_82:\n        /* \"#utility.yul\":11296:11373   */\n      0x4e487b7100000000000000000000000000000000000000000000000000000000\n        /* \"#utility.yul\":11293:11294   */\n      0x00\n        /* \"#utility.yul\":11286:11374   */\n      mstore\n        /* \"#utility.yul\":11393:11397   */\n      0x11\n        /* \"#utility.yul\":11390:11391   */\n      0x04\n        /* \"#utility.yul\":11383:11398   */\n      mstore\n        /* \"#utility.yul\":11417:11421   */\n      0x24\n        /* \"#utility.yul\":11414:11415   */\n      0x00\n        /* \"#utility.yul\":11407:11422   */\n      revert\n        /* \"#utility.yul\":11434:11628   */\n    tag_40:\n        /* \"#utility.yul\":11474:11478   */\n      0x00\n        /* \"#utility.yul\":11494:11514   */\n      tag_210\n        /* \"#utility.yul\":11512:11513   */\n      dup3\n        /* \"#utility.yul\":11494:11514   */\n      tag_46\n      jump\t// in\n    tag_210:\n        /* \"#utility.yul\":11489:11514   */\n      swap2\n      pop\n        /* \"#utility.yul\":11528:11548   */\n      tag_211\n        /* \"#utility.yul\":11546:11547   */\n      dup4\n        /* \"#utility.yul\":11528:11548   */\n      tag_46\n      jump\t// in\n    tag_211:\n        /* \"#utility.yul\":11523:11548   */\n      swap3\n      pop\n        /* \"#utility.yul\":11572:11573   */\n      dup3\n        /* \"#utility.yul\":11569:11570   */\n      dup3\n        /* \"#utility.yul\":11565:11574   */\n      sub\n        /* \"#utility.yul\":11557:11574   */\n      swap1\n      pop\n        /* \"#utility.yul\":11596:11597   */\n      dup2\n        /* \"#utility.yul\":11590:11594   */\n      dup2\n        /* \"#utility.yul\":11587:11598   */\n      gt\n        /* \"#utility.yul\":11584:11621   */\n      iszero\n      tag_212\n      jumpi\n        /* \"#utility.yul\":11601:11619   */\n      tag_213\n      tag_82\n      jump\t// in\n    tag_213:\n        /* \"#utility.yul\":11584:11621   */\n    tag_212:\n        /* \"#utility.yul\":11434:11628   */\n      swap3\n      swap2\n      pop\n      pop\n      jump\t// out\n        /* \"#utility.yul\":11634:12057   */\n    tag_42:\n        /* \"#utility.yul\":11775:11779   */\n      0x00\n        /* \"#utility.yul\":11813:11815   */\n      0x40\n        /* \"#utility.yul\":11802:11811   */\n      dup3\n        /* \"#utility.yul\":11798:11816   */\n      add\n        /* \"#utility.yul\":11790:11816   */\n      swap1\n      pop\n        /* \"#utility.yul\":11826:11897   */\n      tag_215\n        /* \"#utility.yul\":11894:11895   */\n      0x00\n        /* \"#utility.yul\":11883:11892   */\n      dup4\n        /* \"#utility.yul\":11879:11896   */\n      add\n        /* \"#utility.yul\":11870:11876   */\n      dup6\n        /* \"#utility.yul\":11826:11897   */\n      tag_54\n      jump\t// in\n    tag_215:\n        /* \"#utility.yul\":11944:11953   */\n      dup2\n        /* \"#utility.yul\":11938:11942   */\n      dup2\n        /* \"#utility.yul\":11934:11954   */\n      sub\n        /* \"#utility.yul\":11929:11931   */\n      0x20\n        /* \"#utility.yul\":11918:11927   */\n      dup4\n        /* \"#utility.yul\":11914:11932   */\n      add\n        /* \"#utility.yul\":11907:11955   */\n      mstore\n        /* \"#utility.yul\":11972:12050   */\n      tag_216\n        /* \"#utility.yul\":12045:12049   */\n      dup2\n        /* \"#utility.yul\":12036:12042   */\n      dup5\n        /* \"#utility.yul\":11972:12050   */\n      tag_53\n      jump\t// in\n    tag_216:\n        /* \"#utility.yul\":11964:12050   */\n      swap1\n      pop\n        /* \"#utility.yul\":11634:12057   */\n      swap4\n      swap3\n      pop\n      pop\n      pop\n      jump\t// out\n\n    auxdata: 0xa2646970667358221220c6788c1efeab38454422a5afdca631066209507ddc35d2be4d5187dd3018cf5364736f6c634300081a0033\n}\n",
				"bytecode": {
					"linkReferences": {},
					"object": "6080604052348015600e575f80fd5b50610a258061001c5f395ff3fe608060405234801561000f575f80fd5b506004361061003f575f3560e01c80632136dcf2146100435780637ced9a8814610073578063e322572b14610091575b5f80fd5b61005d600480360381019061005891906103ad565b6100ad565b60405161006a9190610448565b60405180910390f35b61007b610214565b6040516100889190610477565b60405180910390f35b6100ab60048036038101906100a691906105bc565b61025a565b005b60605f803373ffffffffffffffffffffffffffffffffffffffff1673ffffffffffffffffffffffffffffffffffffffff1681526020019081526020015f20805490508210610130576040517f08c379a00000000000000000000000000000000000000000000000000000000081526004016101279061064d565b60405180910390fd5b5f803373ffffffffffffffffffffffffffffffffffffffff1673ffffffffffffffffffffffffffffffffffffffff1681526020019081526020015f20828154811061017e5761017d61066b565b5b905f5260205f20018054610191906106c5565b80601f01602080910402602001604051908101604052809291908181526020018280546101bd906106c5565b80156102085780601f106101df57610100808354040283529160200191610208565b820191905f5260205f20905b8154815290600101906020018083116101eb57829003601f168201915b50505050509050919050565b5f805f3373ffffffffffffffffffffffffffffffffffffffff1673ffffffffffffffffffffffffffffffffffffffff1681526020019081526020015f2080549050905090565b5f803373ffffffffffffffffffffffffffffffffffffffff1673ffffffffffffffffffffffffffffffffffffffff1681526020019081526020015f2081908060018154018082558091505060019003905f5260205f20015f9091909190915090816102c59190610892565b505f60015f803373ffffffffffffffffffffffffffffffffffffffff1673ffffffffffffffffffffffffffffffffffffffff1681526020019081526020015f2080549050610313919061098e565b90503373ffffffffffffffffffffffffffffffffffffffff167f4ce8f2f255ba329b1fb50af0e6c58fa7beb068af356260a7809274bcdffe899f828460405161035d9291906109c1565b60405180910390a25050565b5f604051905090565b5f80fd5b5f80fd5b5f819050919050565b61038c8161037a565b8114610396575f80fd5b50565b5f813590506103a781610383565b92915050565b5f602082840312156103c2576103c1610372565b5b5f6103cf84828501610399565b91505092915050565b5f81519050919050565b5f82825260208201905092915050565b8281835e5f83830152505050565b5f601f19601f8301169050919050565b5f61041a826103d8565b61042481856103e2565b93506104348185602086016103f2565b61043d81610400565b840191505092915050565b5f6020820190508181035f8301526104608184610410565b905092915050565b6104718161037a565b82525050565b5f60208201905061048a5f830184610468565b92915050565b5f80fd5b5f80fd5b7f4e487b71000000000000000000000000000000000000000000000000000000005f52604160045260245ffd5b6104ce82610400565b810181811067ffffffffffffffff821117156104ed576104ec610498565b5b80604052505050565b5f6104ff610369565b905061050b82826104c5565b919050565b5f67ffffffffffffffff82111561052a57610529610498565b5b61053382610400565b9050602081019050919050565b828183375f83830152505050565b5f61056061055b84610510565b6104f6565b90508281526020810184848401111561057c5761057b610494565b5b610587848285610540565b509392505050565b5f82601f8301126105a3576105a2610490565b5b81356105b384826020860161054e565b91505092915050565b5f602082840312156105d1576105d0610372565b5b5f82013567ffffffffffffffff8111156105ee576105ed610376565b5b6105fa8482850161058f565b91505092915050565b7f496e76616c696420656e747279204944000000000000000000000000000000005f82015250565b5f6106376010836103e2565b915061064282610603565b602082019050919050565b5f6020820190508181035f8301526106648161062b565b9050919050565b7f4e487b71000000000000000000000000000000000000000000000000000000005f52603260045260245ffd5b7f4e487b71000000000000000000000000000000000000000000000000000000005f52602260045260245ffd5b5f60028204905060018216806106dc57607f821691505b6020821081036106ef576106ee610698565b5b50919050565b5f819050815f5260205f209050919050565b5f6020601f8301049050919050565b5f82821b905092915050565b5f600883026107517fffffffffffffffffffffffffffffffffffffffffffffffffffffffffffffffff82610716565b61075b8683610716565b95508019841693508086168417925050509392505050565b5f819050919050565b5f61079661079161078c8461037a565b610773565b61037a565b9050919050565b5f819050919050565b6107af8361077c565b6107c36107bb8261079d565b848454610722565b825550505050565b5f90565b6107d76107cb565b6107e28184846107a6565b505050565b5b81811015610805576107fa5f826107cf565b6001810190506107e8565b5050565b601f82111561084a5761081b816106f5565b61082484610707565b81016020851015610833578190505b61084761083f85610707565b8301826107e7565b50505b505050565b5f82821c905092915050565b5f61086a5f198460080261084f565b1980831691505092915050565b5f610882838361085b565b9150826002028217905092915050565b61089b826103d8565b67ffffffffffffffff8111156108b4576108b3610498565b5b6108be82546106c5565b6108c9828285610809565b5f60209050601f8311600181146108fa575f84156108e8578287015190505b6108f28582610877565b865550610959565b601f198416610908866106f5565b5f5b8281101561092f5784890151825560018201915060208501945060208101905061090a565b8683101561094c5784890151610948601f89168261085b565b8355505b6001600288020188555050505b505050505050565b7f4e487b71000000000000000000000000000000000000000000000000000000005f52601160045260245ffd5b5f6109988261037a565b91506109a38361037a565b92508282039050818111156109bb576109ba610961565b5b92915050565b5f6040820190506109d45f830185610468565b81810360208301526109e68184610410565b9050939250505056fea2646970667358221220c6788c1efeab38454422a5afdca631066209507ddc35d2be4d5187dd3018cf5364736f6c634300081a0033",
					"opcodes": "PUSH1 0x80 PUSH1 0x40 MSTORE CALLVALUE DUP1 ISZERO PUSH1 0xE JUMPI PUSH0 DUP1 REVERT JUMPDEST POP PUSH2 0xA25 DUP1 PUSH2 0x1C PUSH0 CODECOPY PUSH0 RETURN INVALID PUSH1 0x80 PUSH1 0x40 MSTORE CALLVALUE DUP1 ISZERO PUSH2 0xF JUMPI PUSH0 DUP1 REVERT JUMPDEST POP PUSH1 0x4 CALLDATASIZE LT PUSH2 0x3F JUMPI PUSH0 CALLDATALOAD PUSH1 0xE0 SHR DUP1 PUSH4 0x2136DCF2 EQ PUSH2 0x43 JUMPI DUP1 PUSH4 0x7CED9A88 EQ PUSH2 0x73 JUMPI DUP1 PUSH4 0xE322572B EQ PUSH2 0x91 JUMPI JUMPDEST PUSH0 DUP1 REVERT JUMPDEST PUSH2 0x5D PUSH1 0x4 DUP1 CALLDATASIZE SUB DUP2 ADD SWAP1 PUSH2 0x58 SWAP2 SWAP1 PUSH2 0x3AD JUMP JUMPDEST PUSH2 0xAD JUMP JUMPDEST PUSH1 0x40 MLOAD PUSH2 0x6A SWAP2 SWAP1 PUSH2 0x448 JUMP JUMPDEST PUSH1 0x40 MLOAD DUP1 SWAP2 SUB SWAP1 RETURN JUMPDEST PUSH2 0x7B PUSH2 0x214 JUMP JUMPDEST PUSH1 0x40 MLOAD PUSH2 0x88 SWAP2 SWAP1 PUSH2 0x477 JUMP JUMPDEST PUSH1 0x40 MLOAD DUP1 SWAP2 SUB SWAP1 RETURN JUMPDEST PUSH2 0xAB PUSH1 0x4 DUP1 CALLDATASIZE SUB DUP2 ADD SWAP1 PUSH2 0xA6 SWAP2 SWAP1 PUSH2 0x5BC JUMP JUMPDEST PUSH2 0x25A JUMP JUMPDEST STOP JUMPDEST PUSH1 0x60 PUSH0 DUP1 CALLER PUSH20 0xFFFFFFFFFFFFFFFFFFFFFFFFFFFFFFFFFFFFFFFF AND PUSH20 0xFFFFFFFFFFFFFFFFFFFFFFFFFFFFFFFFFFFFFFFF AND DUP2 MSTORE PUSH1 0x20 ADD SWAP1 DUP2 MSTORE PUSH1 0x20 ADD PUSH0 KECCAK256 DUP1 SLOAD SWAP1 POP DUP3 LT PUSH2 0x130 JUMPI PUSH1 0x40 MLOAD PUSH32 0x8C379A000000000000000000000000000000000000000000000000000000000 DUP2 MSTORE PUSH1 0x4 ADD PUSH2 0x127 SWAP1 PUSH2 0x64D JUMP JUMPDEST PUSH1 0x40 MLOAD DUP1 SWAP2 SUB SWAP1 REVERT JUMPDEST PUSH0 DUP1 CALLER PUSH20 0xFFFFFFFFFFFFFFFFFFFFFFFFFFFFFFFFFFFFFFFF AND PUSH20 0xFFFFFFFFFFFFFFFFFFFFFFFFFFFFFFFFFFFFFFFF AND DUP2 MSTORE PUSH1 0x20 ADD SWAP1 DUP2 MSTORE PUSH1 0x20 ADD PUSH0 KECCAK256 DUP3 DUP2 SLOAD DUP2 LT PUSH2 0x17E JUMPI PUSH2 0x17D PUSH2 0x66B JUMP JUMPDEST JUMPDEST SWAP1 PUSH0 MSTORE PUSH1 0x20 PUSH0 KECCAK256 ADD DUP1 SLOAD PUSH2 0x191 SWAP1 PUSH2 0x6C5 JUMP JUMPDEST DUP1 PUSH1 0x1F ADD PUSH1 0x20 DUP1 SWAP2 DIV MUL PUSH1 0x20 ADD PUSH1 0x40 MLOAD SWAP1 DUP2 ADD PUSH1 0x40 MSTORE DUP1 SWAP3 SWAP2 SWAP1 DUP2 DUP2 MSTORE PUSH1 0x20 ADD DUP3 DUP1 SLOAD PUSH2 0x1BD SWAP1 PUSH2 0x6C5 JUMP JUMPDEST DUP1 ISZERO PUSH2 0x208 JUMPI DUP1 PUSH1 0x1F LT PUSH2 0x1DF JUMPI PUSH2 0x100 DUP1 DUP4 SLOAD DIV MUL DUP4 MSTORE SWAP2 PUSH1 0x20 ADD SWAP2 PUSH2 0x208 JUMP JUMPDEST DUP3 ADD SWAP2 SWAP1 PUSH0 MSTORE PUSH1 0x20 PUSH0 KECCAK256 SWAP1 JUMPDEST DUP2 SLOAD DUP2 MSTORE SWAP1 PUSH1 0x1 ADD SWAP1 PUSH1 0x20 ADD DUP1 DUP4 GT PUSH2 0x1EB JUMPI DUP3 SWAP1 SUB PUSH1 0x1F AND DUP3 ADD SWAP2 JUMPDEST POP POP POP POP POP SWAP1 POP SWAP2 SWAP1 POP JUMP JUMPDEST PUSH0 DUP1 PUSH0 CALLER PUSH20 0xFFFFFFFFFFFFFFFFFFFFFFFFFFFFFFFFFFFFFFFF AND PUSH20 0xFFFFFFFFFFFFFFFFFFFFFFFFFFFFFFFFFFFFFFFF AND DUP2 MSTORE PUSH1 0x20 ADD SWAP1 DUP2 MSTORE PUSH1 0x20 ADD PUSH0 KECCAK256 DUP1 SLOAD SWAP1 POP SWAP1 POP SWAP1 JUMP JUMPDEST PUSH0 DUP1 CALLER PUSH20 0xFFFFFFFFFFFFFFFFFFFFFFFFFFFFFFFFFFFFFFFF AND PUSH20 0xFFFFFFFFFFFFFFFFFFFFFFFFFFFFFFFFFFFFFFFF AND DUP2 MSTORE PUSH1 0x20 ADD SWAP1 DUP2 MSTORE PUSH1 0x20 ADD PUSH0 KECCAK256 DUP2 SWAP1 DUP1 PUSH1 0x1 DUP2 SLOAD ADD DUP1 DUP3 SSTORE DUP1 SWAP2 POP POP PUSH1 0x1 SWAP1 SUB SWAP1 PUSH0 MSTORE PUSH1 0x20 PUSH0 KECCAK256 ADD PUSH0 SWAP1 SWAP2 SWAP1 SWAP2 SWAP1 SWAP2 POP SWAP1 DUP2 PUSH2 0x2C5 SWAP2 SWAP1 PUSH2 0x892 JUMP JUMPDEST POP PUSH0 PUSH1 0x1 PUSH0 DUP1 CALLER PUSH20 0xFFFFFFFFFFFFFFFFFFFFFFFFFFFFFFFFFFFFFFFF AND PUSH20 0xFFFFFFFFFFFFFFFFFFFFFFFFFFFFFFFFFFFFFFFF AND DUP2 MSTORE PUSH1 0x20 ADD SWAP1 DUP2 MSTORE PUSH1 0x20 ADD PUSH0 KECCAK256 DUP1 SLOAD SWAP1 POP PUSH2 0x313 SWAP2 SWAP1 PUSH2 0x98E JUMP JUMPDEST SWAP1 POP CALLER PUSH20 0xFFFFFFFFFFFFFFFFFFFFFFFFFFFFFFFFFFFFFFFF AND PUSH32 0x4CE8F2F255BA329B1FB50AF0E6C58FA7BEB068AF356260A7809274BCDFFE899F DUP3 DUP5 PUSH1 0x40 MLOAD PUSH2 0x35D SWAP3 SWAP2 SWAP1 PUSH2 0x9C1 JUMP JUMPDEST PUSH1 0x40 MLOAD DUP1 SWAP2 SUB SWAP1 LOG2 POP POP JUMP JUMPDEST PUSH0 PUSH1 0x40 MLOAD SWAP1 POP SWAP1 JUMP JUMPDEST PUSH0 DUP1 REVERT JUMPDEST PUSH0 DUP1 REVERT JUMPDEST PUSH0 DUP2 SWAP1 POP SWAP2 SWAP1 POP JUMP JUMPDEST PUSH2 0x38C DUP2 PUSH2 0x37A JUMP JUMPDEST DUP2 EQ PUSH2 0x396 JUMPI PUSH0 DUP1 REVERT JUMPDEST POP JUMP JUMPDEST PUSH0 DUP2 CALLDATALOAD SWAP1 POP PUSH2 0x3A7 DUP2 PUSH2 0x383 JUMP JUMPDEST SWAP3 SWAP2 POP POP JUMP JUMPDEST PUSH0 PUSH1 0x20 DUP3 DUP5 SUB SLT ISZERO PUSH2 0x3C2 JUMPI PUSH2 0x3C1 PUSH2 0x372 JUMP JUMPDEST JUMPDEST PUSH0 PUSH2 0x3CF DUP5 DUP3 DUP6 ADD PUSH2 0x399 JUMP JUMPDEST SWAP2 POP POP SWAP3 SWAP2 POP POP JUMP JUMPDEST PUSH0 DUP2 MLOAD SWAP1 POP SWAP2 SWAP1 POP JUMP JUMPDEST PUSH0 DUP3 DUP3 MSTORE PUSH1 0x20 DUP3 ADD SWAP1 POP SWAP3 SWAP2 POP POP JUMP JUMPDEST DUP3 DUP2 DUP4 MCOPY PUSH0 DUP4 DUP4 ADD MSTORE POP POP POP JUMP JUMPDEST PUSH0 PUSH1 0x1F NOT PUSH1 0x1F DUP4 ADD AND SWAP1 POP SWAP2 SWAP1 POP JUMP JUMPDEST PUSH0 PUSH2 0x41A DUP3 PUSH2 0x3D8 JUMP JUMPDEST PUSH2 0x424 DUP2 DUP6 PUSH2 0x3E2 JUMP JUMPDEST SWAP4 POP PUSH2 0x434 DUP2 DUP6 PUSH1 0x20 DUP7 ADD PUSH2 0x3F2 JUMP JUMPDEST PUSH2 0x43D DUP2 PUSH2 0x400 JUMP JUMPDEST DUP5 ADD SWAP2 POP POP SWAP3 SWAP2 POP POP JUMP JUMPDEST PUSH0 PUSH1 0x20 DUP3 ADD SWAP1 POP DUP2 DUP2 SUB PUSH0 DUP4 ADD MSTORE PUSH2 0x460 DUP2 DUP5 PUSH2 0x410 JUMP JUMPDEST SWAP1 POP SWAP3 SWAP2 POP POP JUMP JUMPDEST PUSH2 0x471 DUP2 PUSH2 0x37A JUMP JUMPDEST DUP3 MSTORE POP POP JUMP JUMPDEST PUSH0 PUSH1 0x20 DUP3 ADD SWAP1 POP PUSH2 0x48A PUSH0 DUP4 ADD DUP5 PUSH2 0x468 JUMP JUMPDEST SWAP3 SWAP2 POP POP JUMP JUMPDEST PUSH0 DUP1 REVERT JUMPDEST PUSH0 DUP1 REVERT JUMPDEST PUSH32 0x4E487B7100000000000000000000000000000000000000000000000000000000 PUSH0 MSTORE PUSH1 0x41 PUSH1 0x4 MSTORE PUSH1 0x24 PUSH0 REVERT JUMPDEST PUSH2 0x4CE DUP3 PUSH2 0x400 JUMP JUMPDEST DUP2 ADD DUP2 DUP2 LT PUSH8 0xFFFFFFFFFFFFFFFF DUP3 GT OR ISZERO PUSH2 0x4ED JUMPI PUSH2 0x4EC PUSH2 0x498 JUMP JUMPDEST JUMPDEST DUP1 PUSH1 0x40 MSTORE POP POP POP JUMP JUMPDEST PUSH0 PUSH2 0x4FF PUSH2 0x369 JUMP JUMPDEST SWAP1 POP PUSH2 0x50B DUP3 DUP3 PUSH2 0x4C5 JUMP JUMPDEST SWAP2 SWAP1 POP JUMP JUMPDEST PUSH0 PUSH8 0xFFFFFFFFFFFFFFFF DUP3 GT ISZERO PUSH2 0x52A JUMPI PUSH2 0x529 PUSH2 0x498 JUMP JUMPDEST JUMPDEST PUSH2 0x533 DUP3 PUSH2 0x400 JUMP JUMPDEST SWAP1 POP PUSH1 0x20 DUP2 ADD SWAP1 POP SWAP2 SWAP1 POP JUMP JUMPDEST DUP3 DUP2 DUP4 CALLDATACOPY PUSH0 DUP4 DUP4 ADD MSTORE POP POP POP JUMP JUMPDEST PUSH0 PUSH2 0x560 PUSH2 0x55B DUP5 PUSH2 0x510 JUMP JUMPDEST PUSH2 0x4F6 JUMP JUMPDEST SWAP1 POP DUP3 DUP2 MSTORE PUSH1 0x20 DUP2 ADD DUP5 DUP5 DUP5 ADD GT ISZERO PUSH2 0x57C JUMPI PUSH2 0x57B PUSH2 0x494 JUMP JUMPDEST JUMPDEST PUSH2 0x587 DUP5 DUP3 DUP6 PUSH2 0x540 JUMP JUMPDEST POP SWAP4 SWAP3 POP POP POP JUMP JUMPDEST PUSH0 DUP3 PUSH1 0x1F DUP4 ADD SLT PUSH2 0x5A3 JUMPI PUSH2 0x5A2 PUSH2 0x490 JUMP JUMPDEST JUMPDEST DUP2 CALLDATALOAD PUSH2 0x5B3 DUP5 DUP3 PUSH1 0x20 DUP7 ADD PUSH2 0x54E JUMP JUMPDEST SWAP2 POP POP SWAP3 SWAP2 POP POP JUMP JUMPDEST PUSH0 PUSH1 0x20 DUP3 DUP5 SUB SLT ISZERO PUSH2 0x5D1 JUMPI PUSH2 0x5D0 PUSH2 0x372 JUMP JUMPDEST JUMPDEST PUSH0 DUP3 ADD CALLDATALOAD PUSH8 0xFFFFFFFFFFFFFFFF DUP2 GT ISZERO PUSH2 0x5EE JUMPI PUSH2 0x5ED PUSH2 0x376 JUMP JUMPDEST JUMPDEST PUSH2 0x5FA DUP5 DUP3 DUP6 ADD PUSH2 0x58F JUMP JUMPDEST SWAP2 POP POP SWAP3 SWAP2 POP POP JUMP JUMPDEST PUSH32 0x496E76616C696420656E74727920494400000000000000000000000000000000 PUSH0 DUP3 ADD MSTORE POP JUMP JUMPDEST PUSH0 PUSH2 0x637 PUSH1 0x10 DUP4 PUSH2 0x3E2 JUMP JUMPDEST SWAP2 POP PUSH2 0x642 DUP3 PUSH2 0x603 JUMP JUMPDEST PUSH1 0x20 DUP3 ADD SWAP1 POP SWAP2 SWAP1 POP JUMP JUMPDEST PUSH0 PUSH1 0x20 DUP3 ADD SWAP1 POP DUP2 DUP2 SUB PUSH0 DUP4 ADD MSTORE PUSH2 0x664 DUP2 PUSH2 0x62B JUMP JUMPDEST SWAP1 POP SWAP2 SWAP1 POP JUMP JUMPDEST PUSH32 0x4E487B7100000000000000000000000000000000000000000000000000000000 PUSH0 MSTORE PUSH1 0x32 PUSH1 0x4 MSTORE PUSH1 0x24 PUSH0 REVERT JUMPDEST PUSH32 0x4E487B7100000000000000000000000000000000000000000000000000000000 PUSH0 MSTORE PUSH1 0x22 PUSH1 0x4 MSTORE PUSH1 0x24 PUSH0 REVERT JUMPDEST PUSH0 PUSH1 0x2 DUP3 DIV SWAP1 POP PUSH1 0x1 DUP3 AND DUP1 PUSH2 0x6DC JUMPI PUSH1 0x7F DUP3 AND SWAP2 POP JUMPDEST PUSH1 0x20 DUP3 LT DUP2 SUB PUSH2 0x6EF JUMPI PUSH2 0x6EE PUSH2 0x698 JUMP JUMPDEST JUMPDEST POP SWAP2 SWAP1 POP JUMP JUMPDEST PUSH0 DUP2 SWAP1 POP DUP2 PUSH0 MSTORE PUSH1 0x20 PUSH0 KECCAK256 SWAP1 POP SWAP2 SWAP1 POP JUMP JUMPDEST PUSH0 PUSH1 0x20 PUSH1 0x1F DUP4 ADD DIV SWAP1 POP SWAP2 SWAP1 POP JUMP JUMPDEST PUSH0 DUP3 DUP3 SHL SWAP1 POP SWAP3 SWAP2 POP POP JUMP JUMPDEST PUSH0 PUSH1 0x8 DUP4 MUL PUSH2 0x751 PUSH32 0xFFFFFFFFFFFFFFFFFFFFFFFFFFFFFFFFFFFFFFFFFFFFFFFFFFFFFFFFFFFFFFFF DUP3 PUSH2 0x716 JUMP JUMPDEST PUSH2 0x75B DUP7 DUP4 PUSH2 0x716 JUMP JUMPDEST SWAP6 POP DUP1 NOT DUP5 AND SWAP4 POP DUP1 DUP7 AND DUP5 OR SWAP3 POP POP POP SWAP4 SWAP3 POP POP POP JUMP JUMPDEST PUSH0 DUP2 SWAP1 POP SWAP2 SWAP1 POP JUMP JUMPDEST PUSH0 PUSH2 0x796 PUSH2 0x791 PUSH2 0x78C DUP5 PUSH2 0x37A JUMP JUMPDEST PUSH2 0x773 JUMP JUMPDEST PUSH2 0x37A JUMP JUMPDEST SWAP1 POP SWAP2 SWAP1 POP JUMP JUMPDEST PUSH0 DUP2 SWAP1 POP SWAP2 SWAP1 POP JUMP JUMPDEST PUSH2 0x7AF DUP4 PUSH2 0x77C JUMP JUMPDEST PUSH2 0x7C3 PUSH2 0x7BB DUP3 PUSH2 0x79D JUMP JUMPDEST DUP5 DUP5 SLOAD PUSH2 0x722 JUMP JUMPDEST DUP3 SSTORE POP POP POP POP JUMP JUMPDEST PUSH0 SWAP1 JUMP JUMPDEST PUSH2 0x7D7 PUSH2 0x7CB JUMP JUMPDEST PUSH2 0x7E2 DUP2 DUP5 DUP5 PUSH2 0x7A6 JUMP JUMPDEST POP POP POP JUMP JUMPDEST JUMPDEST DUP2 DUP2 LT ISZERO PUSH2 0x805 JUMPI PUSH2 0x7FA PUSH0 DUP3 PUSH2 0x7CF JUMP JUMPDEST PUSH1 0x1 DUP2 ADD SWAP1 POP PUSH2 0x7E8 JUMP JUMPDEST POP POP JUMP JUMPDEST PUSH1 0x1F DUP3 GT ISZERO PUSH2 0x84A JUMPI PUSH2 0x81B DUP2 PUSH2 0x6F5 JUMP JUMPDEST PUSH2 0x824 DUP5 PUSH2 0x707 JUMP JUMPDEST DUP2 ADD PUSH1 0x20 DUP6 LT ISZERO PUSH2 0x833 JUMPI DUP2 SWAP1 POP JUMPDEST PUSH2 0x847 PUSH2 0x83F DUP6 PUSH2 0x707 JUMP JUMPDEST DUP4 ADD DUP3 PUSH2 0x7E7 JUMP JUMPDEST POP POP JUMPDEST POP POP POP JUMP JUMPDEST PUSH0 DUP3 DUP3 SHR SWAP1 POP SWAP3 SWAP2 POP POP JUMP JUMPDEST PUSH0 PUSH2 0x86A PUSH0 NOT DUP5 PUSH1 0x8 MUL PUSH2 0x84F JUMP JUMPDEST NOT DUP1 DUP4 AND SWAP2 POP POP SWAP3 SWAP2 POP POP JUMP JUMPDEST PUSH0 PUSH2 0x882 DUP4 DUP4 PUSH2 0x85B JUMP JUMPDEST SWAP2 POP DUP3 PUSH1 0x2 MUL DUP3 OR SWAP1 POP SWAP3 SWAP2 POP POP JUMP JUMPDEST PUSH2 0x89B DUP3 PUSH2 0x3D8 JUMP JUMPDEST PUSH8 0xFFFFFFFFFFFFFFFF DUP2 GT ISZERO PUSH2 0x8B4 JUMPI PUSH2 0x8B3 PUSH2 0x498 JUMP JUMPDEST JUMPDEST PUSH2 0x8BE DUP3 SLOAD PUSH2 0x6C5 JUMP JUMPDEST PUSH2 0x8C9 DUP3 DUP3 DUP6 PUSH2 0x809 JUMP JUMPDEST PUSH0 PUSH1 0x20 SWAP1 POP PUSH1 0x1F DUP4 GT PUSH1 0x1 DUP2 EQ PUSH2 0x8FA JUMPI PUSH0 DUP5 ISZERO PUSH2 0x8E8 JUMPI DUP3 DUP8 ADD MLOAD SWAP1 POP JUMPDEST PUSH2 0x8F2 DUP6 DUP3 PUSH2 0x877 JUMP JUMPDEST DUP7 SSTORE POP PUSH2 0x959 JUMP JUMPDEST PUSH1 0x1F NOT DUP5 AND PUSH2 0x908 DUP7 PUSH2 0x6F5 JUMP JUMPDEST PUSH0 JUMPDEST DUP3 DUP2 LT ISZERO PUSH2 0x92F JUMPI DUP5 DUP10 ADD MLOAD DUP3 SSTORE PUSH1 0x1 DUP3 ADD SWAP2 POP PUSH1 0x20 DUP6 ADD SWAP5 POP PUSH1 0x20 DUP2 ADD SWAP1 POP PUSH2 0x90A JUMP JUMPDEST DUP7 DUP4 LT ISZERO PUSH2 0x94C JUMPI DUP5 DUP10 ADD MLOAD PUSH2 0x948 PUSH1 0x1F DUP10 AND DUP3 PUSH2 0x85B JUMP JUMPDEST DUP4 SSTORE POP JUMPDEST PUSH1 0x1 PUSH1 0x2 DUP9 MUL ADD DUP9 SSTORE POP POP POP JUMPDEST POP POP POP POP POP POP JUMP JUMPDEST PUSH32 0x4E487B7100000000000000000000000000000000000000000000000000000000 PUSH0 MSTORE PUSH1 0x11 PUSH1 0x4 MSTORE PUSH1 0x24 PUSH0 REVERT JUMPDEST PUSH0 PUSH2 0x998 DUP3 PUSH2 0x37A JUMP JUMPDEST SWAP2 POP PUSH2 0x9A3 DUP4 PUSH2 0x37A JUMP JUMPDEST SWAP3 POP DUP3 DUP3 SUB SWAP1 POP DUP2 DUP2 GT ISZERO PUSH2 0x9BB JUMPI PUSH2 0x9BA PUSH2 0x961 JUMP JUMPDEST JUMPDEST SWAP3 SWAP2 POP POP JUMP JUMPDEST PUSH0 PUSH1 0x40 DUP3 ADD SWAP1 POP PUSH2 0x9D4 PUSH0 DUP4 ADD DUP6 PUSH2 0x468 JUMP JUMPDEST DUP2 DUP2 SUB PUSH1 0x20 DUP4 ADD MSTORE PUSH2 0x9E6 DUP2 DUP5 PUSH2 0x410 JUMP JUMPDEST SWAP1 POP SWAP4 SWAP3 POP POP POP JUMP INVALID LOG2 PUSH5 0x6970667358 0x22 SLT KECCAK256 0xC6 PUSH25 0x8C1EFEAB38454422A5AFDCA631066209507DDC35D2BE4D5187 0xDD ADDRESS XOR 0xCF MSTORE8 PUSH5 0x736F6C6343 STOP ADDMOD BYTE STOP CALLER "
				},
				"gasEstimates": {
					"creation": {
						"codeDepositCost": "519400",
						"executionCost": "554",
						"totalCost": "519954"
					},
					"external": {
						"addDiaryEntry(string)": "infinite",
						"getDiaryEntry(uint256)": "infinite",
						"getDiaryEntryCount()": "2527"
					}
				},
				"methodIdentifiers": {
					"addDiaryEntry(string)": "e322572b",
					"getDiaryEntry(uint256)": "2136dcf2",
					"getDiaryEntryCount()": "7ced9a88"
				}
			},
			"storageLayout": {
				"storage": [
					{
						"astId": 6,
						"contract": "project-10/contracts/contract.sol:BlockchainDiary",
						"label": "diaryEntries",
						"offset": 0,
						"slot": "0",
						"type": "t_mapping(t_address,t_array(t_string_storage)dyn_storage)"
					}
				],
				"types": {
					"t_address": {
						"encoding": "inplace",
						"label": "address",
						"numberOfBytes": "20"
					},
					"t_array(t_string_storage)dyn_storage": {
						"base": "t_string_storage",
						"encoding": "dynamic_array",
						"label": "string[]",
						"numberOfBytes": "32"
					},
					"t_mapping(t_address,t_array(t_string_storage)dyn_storage)": {
						"encoding": "mapping",
						"key": "t_address",
						"label": "mapping(address => string[])",
						"numberOfBytes": "32",
						"value": "t_array(t_string_storage)dyn_storage"
					},
					"t_string_storage": {
						"encoding": "bytes",
						"label": "string",
						"numberOfBytes": "32"
					}
				}
			},
			"userdoc": {
				"kind": "user",
				"methods": {},
				"version": 1
			}
		}
	}
}